:020000040000FA
:100000000C94DF000C9407010C9407010C94070179
:100010000C9407010C9407010C9407010C94070140
:100020000C9407010C9407010C9407010C94070130
:100030000C9407010C9407010C9407010C94070120
:100040000C941F050C9407010C948F050C94690502
:100050000C94C1050C9407010C9407010C94070142
:100060000C9407010C94070100407A10F35A00A089
:10007000724E18090010A5D4E80000E87648170071
:1000800000E40B54020000CA9A3B000000E1F505B1
:10009000000080969800000040420F000000A086FB
:1000A00001000000102700000000E803000000002D
:1000B0006400000000000A000000000001000000D1
:1000C00000002C76D888DC674F0823DFC1DFAE59EB
:1000D000E1B1B796E5E3E453C63AE651997696E87E
:1000E000E6C28426EB898C9B62ED407C6FFCEFBC02
:1000F0009C9F40F2BAA56FA5F490055A2AF75C932D
:100100006B6CF9676DC11BFCE0E40D47FEF520E662
:10011000B500D0ED902E0300943577050080841E45
:10012000080000204E0A000000C80C333333330FA0
:10013000986E12831141EF8D2114893BE65516CF3D
:10014000FEE6DB18D1844B381BF77C1D901DA4BB49
:10015000E424203284725E228100C9F124ECA1E5FE
:100160003D2700000000240027002A0000000000B6
:10017000250028002B0000000008000201000003F9
:100180000407000000000000000000000000230041
:1001900026002900040404040404040402020202E8
:1001A000020203030303030301020408102040803A
:1001B0000102040810200102040810201106112475
:1001C0001FBECFEFD8E0DEBFCDBF21E0A4E3B1E09A
:1001D00001C01D92AC3FB207E1F711E0A0E0B1E031
:1001E000E8E2FCE102C005900D92A433B107D9F713
:1001F00010E0CFEDD0E004C02197FE010E940B0C6F
:10020000CE3DD107C9F70E9453060C94120E0C94F0
:100210000000833081F028F4813099F08230A9F019
:1002200008958730A9F08830C9F08430B1F4809106
:1002300080008F7D03C0809180008F778093800045
:10024000089584B58F7784BD089584B58F7DFBCFE5
:100250008091B0008F778093B00008958091B000B6
:100260008F7DF9CFCF93DF93282F30E0F901EA5843
:10027000FE4F8491F901E855FE4FD491F901EC56F7
:10028000FE4FC491CC23A1F081110E940901EC2FF3
:10029000F0E0EE0FFF1FE657FE4FA591B491EC91F1
:1002A000ED2381E090E009F480E0DF91CF910895A3
:1002B00080E090E0FACF1F93CF93DF93282F30E0B8
:1002C000F901EA58FE4F8491F901E855FE4FD491A7
:1002D000F901EC56FE4FC491CC23A9F0162F8111E1
:1002E0000E940901EC2FF0E0EE0FFF1FE459FE4FD2
:1002F000A591B4918FB7F894EC91111108C0D095E5
:10030000DE23DC938FBFDF91CF911F910895DE2B09
:10031000F8CFCF93DF9390E0FC01E855FE4F249196
:100320008C569E4FFC0184918823D1F090E0880F79
:10033000991FFC01EE59FE4FA591B491FC01E459BF
:10034000FE4FC591D49161110EC09FB7F8948C9166
:10035000E22FE0958E238C932881E223E8839FBFD0
:10036000DF91CF9108958FB7F894EC91E22BEC9345
:100370008FBFF6CF3FB7F894809137019091380145
:10038000A0913901B0913A0126B5A89B05C02F3F35
:1003900019F00196A11DB11D3FBFBA2FA92F982FAB
:1003A0008827BC01CD01620F711D811D911D42E0A6
:1003B000660F771F881F991F4A95D1F708958F926E
:1003C0009F92AF92BF92CF92DF92EF92FF924B013A
:1003D0005C010E94BA016B017C010E94BA016C1998
:1003E0007D098E099F09683E734081059105A8F338
:1003F00021E0821A9108A108B10888EEC80E83E0B6
:10040000D81EE11CF11C81149104A104B10429F748
:10041000FF90EF90DF90CF90BF90AF909F908F9024
:100420000895AF92BF92CF92DF92EF92FF920F9317
:100430001F93CF93DF936C017B018B01040F151F7A
:10044000EB015E01AE18BF08C017D10759F06991E2
:10045000D601ED91FC910190F081E02DC601099546
:10046000892B79F7C501DF91CF911F910F91FF90F3
:10047000EF90DF90CF90BF90AF900895FC01538D27
:10048000448D252F30E0842F90E0821B930B54176E
:1004900010F0CF96089501970895FC01918D828DFB
:1004A000981761F0A28DAE0FBF2FB11D5D968C9194
:1004B000928D9F5F9F73928F90E008958FEF9FEFD3
:1004C0000895FC01918D828D981731F0828DE80F8F
:1004D000F11D858D90E008958FEF9FEF0895FC0149
:1004E000918D228D892F90E0805C9F4F821B910916
:1004F0008F73992708958FE391E00E946F0221E0A6
:10050000892B09F420E0822F089580E090E0892B68
:1005100029F00E947B0281110C9400000895FC01D7
:10052000A48DA80FB92FB11DA35ABF4F2C91848D54
:1005300090E001968F739927848FA689B7892C93B1
:10054000A089B1898C91837080648C93938D848D04
:10055000981306C00288F389E02D80818F7D808307
:100560000895EF92FF920F931F93CF93DF93EC01C7
:1005700081E0888F9B8D8C8D98131AC0E889F9894A
:10058000808185FF15C09FB7F894EE89FF8960834D
:10059000E889F98980818370806480839FBF81E0CE
:1005A00090E0DF91CF911F910F91FF90EF90089510
:1005B000F62E0B8D10E00F5F1F4F0F731127E02EEB
:1005C0008C8D8E110CC00FB607FCFACFE889F98923
:1005D000808185FFF5CFCE010E948F02F1CFEB8D98
:1005E000EC0FFD2FF11DE35AFF4FF0829FB7F894F7
:1005F0000B8FEA89FB8980818062CFCFCF93DF9315
:10060000EC01888D8823B9F0AA89BB89E889F9892A
:100610008C9185FD03C0808186FD0DC00FB607FC5F
:10062000F7CF8C9185FFF2CF808185FFEDCFCE0192
:100630000E948F02E9CFDF91CF910895CF92DF9290
:10064000EF92FF920F931F93CF93DF938091F3016B
:10065000882309F459C02FB7F89480913B019091F9
:100660003C01A0913D01B0913E012FBF8093DD017F
:100670009093DE01A093DF01B093E0011092F301AB
:1006800061E08091DC010E94890160E08091DC01E1
:100690000E945B0162E070E080E090E00E94DF0178
:1006A00061E08091DC010E945B0160E08091DC01EF
:1006B0000E9489018091DC0190E0FC01E855FE4F29
:1006C0006491FC01EC56FE4FE491F0E0EE0FFF1F49
:1006D000E657FE4F859194910AEF10E020E030E05C
:1006E000462F0E94CC05611571058105910589F59C
:1006F00081E08093F401DF91CF911F910F91FF90E2
:10070000EF90DF90CF9008958FB7F89440913B0120
:1007100050913C0160913D0170913E018FBF8091ED
:10072000DD019091DE01A091DF01B091E001481B55
:10073000590B6A0B7B0B8091F6019091F701B0E0A9
:10074000A0E0481759076A077B0708F084CF80E0CC
:10075000D2CF6F5F7F4F8F4F9F4F9F70672B682B5C
:10076000692B31F21092E1011092E2011092E30143
:100770001092E4011092E5011092E6011092E70157
:100780001092E80110E0CBE9D0E00E94BA016B01C1
:100790007C018091DC010E943201892BD1F40E94FE
:1007A000BA01AB01BC014C195D096E097F0980914A
:1007B000F0019091F501890F9927991F092E000CDE
:1007C000AA0BBB0B84179507A607B70710F782E0A3
:1007D00090CFCE010197F1F78091DC010E943201A8
:1007E000019719F52091E1013091E2014091E30177
:1007F0005091E4016091E5017091E6018091E7017B
:100800009091E801A1E00E94FF0B2093E101309359
:10081000E2014093E3015093E4016093E50170939A
:10082000E6018093E7019093E801173219F12091D6
:10083000E1013091E2014091E3015091E4016091C6
:10084000E5017091E6018091E7019091E80101E0F6
:100850000E94C90B2093E1013093E2014093E30130
:100860005093E4016093E5017093E6018093E70102
:100870009093E8010E94BA016B017C018091DC0138
:100880000E9432010197A1F40E94BA01AB01BC01A0
:100890004C195D096E097F098091F20190E0B0E08A
:1008A000A0E084179507A607B70740F783E021CF9C
:1008B0001F5F183209F069CF83E290E00197F1F7EA
:1008C00061E08091DC010E94890161E08091DC019E
:1008D0000E945B01F091E101D090E201E090E30120
:1008E000F090E4011091E501D091E601C091E7019B
:1008F000B091E8012F2F3D2DA701612F7D2F8C2F67
:100900009B2F08E10E94E40BA32FE22F2093E90123
:100910003093EA012F2F3D2DA701612F7D2F8C2FC2
:100920009B2F08E00E94E40B2093EB013093EC0135
:10093000F093ED01E20FEA0F3E0FF31303C01092A4
:10094000F40105CF84E0D5CE0F931F93CF93DF93AF
:10095000EC0188819981009759F02A813B81261703
:10096000370730F081E0DF91CF911F910F9108950B
:100970008B016F5F7F4F0E94360D009759F099836E
:1009800088831B830A832C813D81232B59F7FC012B
:100990001082E8CF80E0E7CFCF92DF92EF92FF9214
:1009A0000F931F93CF93DF93CDB7DEB764970FB646
:1009B000F894DEBF0FBECDBF7C01CB01BA018E0122
:1009C0000F5F1F4F22E044E00E943D086C01FC01D4
:1009D00001900020E9F73197E81BF90B892B81F48E
:1009E00080E064960FB6F894DEBF0FBECDBFDF91F6
:1009F000CF911F910F91FF90EF90DF90CF900895CE
:100A00003097D9F0D70114960D911C910E0F1F1F2E
:100A1000B801C7010E94A404882311F3F7012081C3
:100A2000318184819581B601820F931F0E94FC0D54
:100A3000D70115961C930E93149781E0D2CF1F9285
:100A40000F920FB60F9211242F933F938F939F9382
:100A5000AF93BF9380913B0190913C01A0913D01E8
:100A6000B0913E013091360123E0230F2D3758F528
:100A70000196A11DB11D2093360180933B019093F7
:100A80003C01A0933D01B0933E01809137019091CC
:100A90003801A0913901B0913A010196A11DB11D13
:100AA0008093370190933801A0933901B0933A01B4
:100AB000BF91AF919F918F913F912F910F900FBE5A
:100AC0000F901F90189526E8230F0296A11DB11DC7
:100AD000D2CF1F920F920FB60F9211242F933F93F4
:100AE0004F935F936F937F938F939F93AF93BF9336
:100AF000EF93FF938FE391E00E948F02FF91EF91BC
:100B0000BF91AF919F918F917F916F915F914F9125
:100B10003F912F910F900FBE0F901F9018951F922D
:100B20000F920FB60F9211242F938F939F93EF93F1
:100B3000FF93E0914F01F09150018081E0915501C8
:100B4000F091560182FD1BC09081809158018F5F0A
:100B50008F7320915901821741F0E0915801F0E024
:100B6000E15CFE4F958F80935801FF91EF919F912B
:100B70008F912F910F900FBE0F901F90189580812D
:100B8000F4CF1F920F920FB60F9211245A980F9024
:100B90000FBE0F901F901895CF92DF92EF92FF92A9
:100BA0000F931F93E82FF92F05C001501109210958
:100BB000310961F1908196239417B9F305C0015072
:100BC00011092109310911F1908196239413F7CF6E
:100BD000C12CD12CE12CF12C0AC08FEFC81AD80AF5
:100BE000E80AF80A0C151D052E053F0579F08081ED
:100BF0008623841791F36C2D7D2D8E2D9F2D1F91B3
:100C00000F91FF90EF90DF90CF90089560E070E03B
:100C100080E090E01F910F91FF90EF90DF90CF90D8
:100C20000895EFE3F1E01382128288EE93E0A0E0F2
:100C3000B0E084839583A683B7838AE091E09183B3
:100C4000808385EC90E09587848784EC90E097879B
:100C5000868780EC90E0918B808B81EC90E0938B89
:100C6000828B82EC90E0958B848B86EC90E0978B66
:100C7000868B118E128E138E148EECEDF1E080E5D2
:100C8000828B838B82E3848B8BE1858B86E4868BDE
:100C900081E0878B8EE1818F84E398E0938F828F50
:100CA00089E080830895CF93DF93CDB7DEB7C85531
:100CB000D1090FB6F894DEBF0FBECDBF789484B5CE
:100CC000826084BD84B5816084BD85B5826085BD48
:100CD00085B5816085BD80916E00816080936E00D6
:100CE00010928100809181008260809381008091C8
:100CF0008100816080938100809180008160809379
:100D000080008091B10084608093B1008091B00038
:100D100081608093B00080917A00846080937A0033
:100D200080917A00826080937A0080917A0081605D
:100D300080937A0080917A00806880937A00109284
:100D4000C10068EE73E080E090E00E94DF0187E080
:100D50008AB988EF8BB9E0914F01F091500182E0A0
:100D60008083E0914B01F0914C0181E08083E09120
:100D70004D01F0914E0180EA808310925701E0917D
:100D80005301F091540186E08083E0915101F0918C
:100D90005201808180618083E0915101F091520184
:100DA000808188608083E0915101F09152018081BF
:100DB00080688083E0915101F091520180818F7DA4
:100DC00080838091C10084648093C1008091C000C1
:100DD00081608093C00061E070E080E090E00E945C
:100DE000DF012CE8F22E00E010E08FE391E00E949A
:100DF0006F02892B09F4FEC08FE391E00E944D023F
:100E00008C3409F0F7C08091C0008E7F8093C000C1
:100E10005A9A61E070E080E090E00E94DF01659600
:100E20001FAE1EAE659767961FAE1EAE679769969A
:100E30001FAE1EAE69976DE070E0CE018D5A9F4FD8
:100E40000E94A40465962EAD3FAD65978111DEC06A
:100E50002115310519F0C9010E94AD0C65961FAE30
:100E60001EAE659769961FAE1EAE699767961FAE58
:100E70001EAE67978091F4018111AEC00E941E03DF
:100E80008111D9C06091EB017091EC0177FFCAC06C
:100E90007F7790E080E00E94920A20E030E040E21C
:100EA00051EC0E94570BAB01BC01CE018D5A9F4FF4
:100EB0000E94CC046996CEACDFAC69978CE0C80E7A
:100EC000D11CB601CE018D5A9F4F0E94A4048823E5
:100ED00091F065962EAD3FAD659769968EAD9FAD4D
:100EE000699766E271E0820F931F0E94FC0D69967C
:100EF000DFAECEAE69970E941E0340E050E060E88E
:100F00007FEB811110C06091E9017091EA0190E0DE
:100F100080E00E94920A20E030E040E251E40E942A
:100F2000570BAB01BC01CE018D5A9F4F0E94CC04E0
:100F30006996CEACDFAC6997C114D10409F080C0CA
:100F40001BA6DE019B965D01FE0131966F019D019E
:100F5000285D3F4FCF01FD014191DC014D93CD0153
:100F6000E217F307C9F780E0D5013D915D0128E064
:100F7000682F6327082E000C990BAC0155954795F7
:100F8000842F60FF02C08F2D84273595215081F773
:100F9000EA15FB0549F7282F082E000C330B39A75B
:100FA0008AA75601BAE2AB0EB11CF60161916F013E
:100FB0008FE391E00E94B102AC14BD04B1F78091BF
:100FC00034019091350101968530910509F450C0A6
:100FD000909335018093340165968EAD9FAD6597F2
:100FE000009711F00E94AD0C68EC70E080E090E09A
:100FF0000E94DF010115110509F4F7CE0E947B0262
:10100000882309F4F2CE0E940000EFCE8DE090E03C
:1010100069969FAF8EAF699768E171E0C9010E9440
:10102000FC0D28CF90E080E00E94920A20E030E0A2
:1010300040E251E436CF60E070E888E893EC33CFCB
:1010400097E2C916D10418F097E2C92ED12C659603
:101050006EAD7FAD6597A601CE018B960E94030E03
:10106000EBE2F0E0EC0FFD1FEC0DFD1D108269CFEF
:101070001092350110923401AFCFEF920F931F936E
:10108000CF93DF93E80134E047FD34E1042E000CF8
:10109000550B57FF03C0519541955109E32E022F7F
:1010A000242FAE010E945B08CE01DF91CF911F91EA
:1010B0000F91EF900895A9E0B0E0E1E6F8E00C941C
:1010C000260B6A01F22EB02E102FFBE3AF2EA016D6
:1010D00008F41BE31F5F012F27E0AE014F5F5F4F56
:1010E0000E94BA09BC018981982F9970913009F446
:1010F0003FC09BE2E1FC04C09E2D9170E0FC3AC031
:101100005E2D5071E82FE87083FF46C084E0911196
:1011100001C083E0EF2DE81B8F1508F0E0E0D60159
:101120008E2F20E2552351F1992329F0D6019C936B
:10113000C60101966C0196012D5F3F4FE2FE24C06F
:101140008EE4D6018C9391E411969C93119712969C
:101150008C93D9018E2F90E281111BC0E20FF32FE7
:10116000F11D10828EEF9FEF2996ECE00C94420B5C
:101170009DE2C6CF90E2C4CF2D9381508111FCCF68
:10118000CE0ED11CE0E0D0CF8EE6D6018C9391E656
:10119000DBCF9D938150E0CF482F447082FF3DC04C
:1011A00084E0911101C083E08F1510F4EF2DE81B4E
:1011B000D6018E2F20E2552309F1992329F0D6017B
:1011C0009C93C60101966C0196012D5F3F4FE2FE94
:1011D0001BC089E4D6018C938EE411968C931197F1
:1011E00086E412968C93D9018E2F90E2882309F41D
:1011F000B5CF9D938150FACF2D9381508111FCCFB3
:10120000CE0ED11CE0E0D9CF89E6D6018C938EE6D4
:1012100011968C93119786E6E4CF9B0177FF02C06D
:1012200030E020E0A1E0B0E0911102C0B0E0A0E029
:10123000F9013196AE0FBF1F8B2C912CBB2009F406
:1012400061C05401EFEFAE1ABE0AAA0DBB1DFA161B
:101250001B0619F014F04F2D4A1B511188C0E3FCF6
:1012600059C07601A42FB0E2A1114FC0C40ED11C09
:10127000992309F45BC040E0D6011196F6019083F2
:101280006D01552309F448C0012F060F9A81582F8C
:10129000507184FF03C0913309F4015010160CF013
:1012A00047C0093008F008E0EEE2FE2E5B01A01A0C
:1012B000B10885019194819491082F3F320729F458
:1012C000D601FC92F60131966F016217730794F113
:1012D000021713077CF5DB01A21BB30BAA24A3940E
:1012E000B12CAC0EBD1EAA0DBB1D11968C912150C8
:1012F0003109D601119628153905F4F0F6018083DD
:101300006D01DBCFB12CA12CA0CFF701B1937F01F0
:10131000A150AACF9111B0CFD601942F50E302C0B3
:101320005D9391509111FCCFC40ED11C40E0ACCF25
:1013300001E0BACF80E3DBCF6217730731F4963355
:1013400088F4953311F4552369F0F6018083FD018B
:10135000842F90E2811108C0A40FB11D1C9290E06F
:1013600080E002CF81E3F1CF91938150F3CF9111CF
:1013700083CF8ACF283008F027E03327DA01990F8E
:10138000311D87FD916000966105710539F4326069
:101390002E5F3D9330E32A95E1F708959F3F30F0AB
:1013A00080387105610509F03C5F3C5F3D939130E9
:1013B00008F08068911DDF93CF931F930F93FF92E6
:1013C000EF92192F987F9695E92F96959695E90FAC
:1013D000FF27EE53FF4F99273327EE24FF24A70161
:1013E000E70105900894079428F4360FE71EF81ECD
:1013F000491F511D660F771F881F991F0694A1F77B
:101400000590079428F4E70EF81E491F561FC11DCA
:10141000770F881F991F661F0694A1F70590079400
:1014200028F4F80E491F561FC71FD11D880F991F9A
:10143000661F771F0694A1F70590079420F4490FC3
:10144000561FC71FD81F990F661F771F881F069446
:10145000A9F784911095177041F0D695C7955795C7
:101460004795F794E7941A95C1F7E8E6F0E0689499
:101470001590159135916591959105907FE2739541
:10148000E118F10A430B560BC90BD009C0F7E10C68
:10149000F11E431F561FC91FD01D7EF4703311F477
:1014A0008A95E6CFE894015030F0080F0AF400273F
:1014B000021708F4202F2395022F7A3328F079E3BE
:1014C0007D932A95E9F710C07D932A9589F60694B5
:1014D00097956795379517951794E118F10A430B7F
:1014E000560BC90BD00998F023957E9173957A33EA
:1014F00008F070E37C932013B8F77E9170617D93C0
:1015000030F0839571E37D9370E32A95E1F7112420
:10151000EF90FF900F911F91CF91DF91992787FD59
:1015200090950895E89409C097FB3EF490958095B6
:10153000709561957F4F8F4F9F4F9923A9F0F92F99
:1015400096E9BB279395F695879577956795B79517
:10155000F111F8CFFAF4BB0F11F460FF1BC06F5FFD
:101560007F4F8F4F9F4F16C0882311F096E911C00F
:10157000772321F09EE8872F762F05C0662371F030
:1015800096E8862F70E060E02AF09A95660F771F44
:10159000881FDAF7880F9695879597F9089597F938
:1015A0009F6780E870E060E008959FEF80EC089509
:1015B00000240A9416161706180609060895002432
:1015C0000A9412161306140605060895092E0394AC
:1015D000000C11F4882352F0BB0F40F4BF2B11F420
:1015E00060FF04C06F5F7F4F8F4F9F4F089557FD7F
:1015F0009058440F551F59F05F3F71F04795880F81
:1016000097FB991F61F09F3F79F087950895121617
:1016100013061406551FF2CF4695F1DF08C01616C3
:1016200017061806991FF1CF869571056105089474
:101630000895E894BB2766277727CB0197F908958B
:101640002F923F924F925F926F927F928F929F92D2
:10165000AF92BF92CF92DF92EF92FF920F931F93C0
:10166000CF93DF93CDB7DEB7CA1BDB0B0FB6F89471
:10167000DEBF0FBECDBF09942A88398848885F84B1
:101680006E847D848C849B84AA84B984C884DF8022
:10169000EE80FD800C811B81AA81B981CE0FD11D06
:1016A0000FB6F894DEBF0FBECDBFED0108950E94C6
:1016B0006B0B0C94E60A0E94DF0A58F00E94D80ACD
:1016C00040F029F45F3F29F00C94CF0A51110C949B
:1016D0001A0B0C94D50A0E94F70A68F39923B1F308
:1016E000552391F3951B550BBB27AA276217730748
:1016F000840738F09F5F5F4F220F331F441FAA1FDC
:10170000A9F335D00E2E3AF0E0E832D09150504097
:10171000E695001CCAF72BD0FE2F29D0660F771F45
:10172000881FBB1F261737074807AB07B0E809F02B
:10173000BB0B802DBF01FF2793585F4F3AF09E3FB0
:10174000510578F00C94CF0A0C941A0B5F3FE4F328
:10175000983ED4F3869577956795B795F7959F5FF3
:10176000C9F7880F911D9695879597F90895E1E03F
:10177000660F771F881FBB1F621773078407BA079E
:1017800020F0621B730B840BBA0BEE1F88F7E095F9
:101790000895002E083090F0982F872F762F652F10
:1017A000542F432F322F22270850F4CF220F331FFC
:1017B000441F551F661F771F881F991F0A95B2F790
:1017C000002D089597FD1094002E083098F00850D1
:1017D000232F342F452F562F672F782F892F912DA8
:1017E000F4CF159497958795779567955795479575
:1017F000379527950A95AAF71124002D08950024FE
:10180000A7FD00942A0F301D401D501D601D701D46
:10181000801D901D0895EE0FFF1F0590F491E02D9F
:1018200009940F931F93CF93DF938230910510F4A7
:1018300082E090E0E091FA01F091FB0130E020E0DD
:10184000B0E0A0E0309799F42115310509F44AC0C1
:10185000281B390B24303105D8F58A819B8161150D
:10186000710589F1FB0193838283FE0111C04081E0
:1018700051810281138148175907E0F04817590731
:1018800099F4109761F012960C93129713961C938B
:101890003296CF01DF91CF911F910F910895009360
:1018A000FA011093FB01F4CF2115310551F04217D5
:1018B000530738F0A901DB019A01BD01DF01F801EE
:1018C000C1CFEF01F9CF9093FB018093FA01CDCF07
:1018D000FE01E20FF31F8193919322503109398366
:1018E0002883D7CF2091F8013091F901232B41F4BF
:1018F00020910201309103013093F9012093F80106
:1019000020910001309101012115310541F42DB7DD
:101910003EB74091040150910501241B350BE09125
:10192000F801F091F901E217F307A0F42E1B3F0B29
:101930002817390778F0AC014E5F5F4F2417350741
:1019400048F04E0F5F1F5093F9014093F8018193C7
:1019500091939FCFF0E0E0E09CCFCF93DF9300978F
:10196000E9F0FC01329713821282A091FA01B09142
:10197000FB01ED0130E020E01097A1F420813181DE
:10198000820F931F2091F8013091F9012817390730
:1019900009F061C0F093F901E093F801DF91CF9174
:1019A0000895EA01CE17DF07E8F54A815B819E01C1
:1019B00041155105B1F7E901FB83EA83499159913A
:1019C000C40FD51FEC17FD0761F480819181029649
:1019D000840F951FE90199838883828193819B837A
:1019E0008A83F0E0E0E012968D919C911397009726
:1019F000B9F52D913C911197CD010296820F931F5D
:101A00002091F8013091F9012817390739F63097FC
:101A100051F51092FB011092FA01B093F901A093D5
:101A2000F801BCCFD383C28340815181840F951FBD
:101A3000C817D90761F44E5F5F4F88819981480FBD
:101A4000591F518340838A819B819383828321150F
:101A5000310509F0B0CFF093FB01E093FA019ECF7E
:101A6000FD01DC01C0CF13821282D7CFB0E0A0E02D
:101A7000ECE3FDE00C94220B8C01009751F4CB01B8
:101A80000E94110C8C01C801CDB7DEB7E0E10C94C7
:101A90003E0BFC01E60FF71F9C0122503109E217B3
:101AA000F30708F49DC0D901CD91DC911197C617B9
:101AB000D70798F0C530D10530F3CE0104978617CB
:101AC000970708F3C61BD70B2297C193D1936D9349
:101AD0007C93CF010E94AD0CD6CF5B01AC1ABD0A3E
:101AE0004C018C0E9D1EA091FA01B091FB01512C6E
:101AF000412CF12CE12C109731F58091F801909157
:101B0000F9018815990509F05CC04616570608F0DA
:101B100058C08091000190910101009741F48DB768
:101B20009EB74091040150910501841B950BE81765
:101B3000F90708F055C0F093F901E093F801F901B5
:101B400071836083A0CF8D919C91119712966C90B8
:101B5000129713967C901397A815B90559F56C0147
:101B600042E0C40ED11CCA14DB0420F1AC014A19B6
:101B70005B09DA011296159780F0628273825183B5
:101B80004083D9016D937C93E114F10471F0D70186
:101B90001396FC93EE93129776CF22968C0F9D1F8F
:101BA000F90191838083F301EFCFF093FB01E09380
:101BB000FA0169CF4816590608F42C017D01D301BA
:101BC0009ACFCB010E94110C7C01009749F0AE0125
:101BD000B8010E94F30DC8010E94AD0C870153CFDC
:101BE00010E000E050CFFB01DC0102C001900D923B
:101BF00041505040D8F70895FB01DC0101900D924F
:101C00000020E1F70895FB01DC014150504048F00D
:101C100001900D920020C9F701C01D924150504023
:101C2000E0F70895F894FFCF0000FC018000000069
:101C30000000B10211023E02FE026F024D0261027B
:101C400054656D70657261747572653A20002C2060
:0C1C500048756D69646974793A200000E1
:107E0000112484B714BE81FFF0D085E080938100F7
:107E100082E08093C00088E18093C10086E0809377
:107E2000C20080E18093C4008EE0C9D0259A86E02C
:107E300020E33CEF91E0309385002093840096BBD3
:107E4000B09BFECF1D9AA8958150A9F7CC24DD24C4
:107E500088248394B5E0AB2EA1E19A2EF3E0BF2EE7
:107E6000A2D0813461F49FD0082FAFD0023811F036
:107E7000013811F484E001C083E08DD089C08234E0
:107E800011F484E103C0853419F485E0A6D080C0E4
:107E9000853579F488D0E82EFF2485D0082F10E0AE
:107EA000102F00270E291F29000F111F8ED06801E7
:107EB0006FC0863521F484E090D080E0DECF843638
:107EC00009F040C070D06FD0082F6DD080E0C81688
:107ED00080E7D80618F4F601B7BEE895C0E0D1E017
:107EE00062D089930C17E1F7F0E0CF16F0E7DF06D8
:107EF00018F0F601B7BEE89568D007B600FCFDCFD4
:107F0000A601A0E0B1E02C9130E011968C91119780
:107F100090E0982F8827822B932B1296FA010C0160
:107F200087BEE89511244E5F5F4FF1E0A038BF0790
:107F300051F7F601A7BEE89507B600FCFDCF97BE46
:107F4000E89526C08437B1F42ED02DD0F82E2BD052
:107F50003CD0F601EF2C8F010F5F1F4F84911BD097
:107F6000EA94F801C1F70894C11CD11CFA94CF0C13
:107F7000D11C0EC0853739F428D08EE10CD085E9AC
:107F80000AD08FE07ACF813511F488E018D01DD067
:107F900080E101D065CF982F8091C00085FFFCCF94
:107FA0009093C60008958091C00087FFFCCF809118
:107FB000C00084FD01C0A8958091C6000895E0E648
:107FC000F0E098E1908380830895EDDF803219F02E
:107FD00088E0F5DFFFCF84E1DECF1F93182FE3DFCA
:107FE0001150E9F7F2DF1F91089580E0E8DFEE27F6
:047FF000FF270994CA
:027FFE00040479
:00000001FF
