:100000000C9483000C94B4000C94B4000C94B400D1
:100010000C94B4000C94B4000C94B4000C94B40090
:100020000C94B4000C94B4000C94B4000C94B40080
:100030000C94B4000C94B4000C94B4000C94B40070
:100040000C94B4000C94B4000C94B4000C94B40060
:100050000C94B4000C94B4000C94B4000C944102C1
:100060000C94B4000C94B5020C948B020C94B40064
:100070000C94B4000C94B4000C94B4000C94B40030
:100080000C94B4000C94B4000C94B4000C94B40020
:100090000C94B4000C94B4000C94B4000C94B40010
:1000A0000C94B4000C94B4000C94B4000C94B40000
:1000B0000C94B4000C94B4000C94B4000C94B400F0
:1000C0000C94B4000C94B4000C94B4000C94B400E0
:1000D0000C94B4000C94B4000C94B4000C94B400D0
:1000E0000C94B4000C94A3010C946B010C940D01BE
:1000F0000C9449010C9487040C94F0010C943A017F
:100100000C945D01870411241FBECFEFD1E2DEBF46
:10011000CDBF00E00CBF22E0A0E3B2E001C01D9221
:10012000AC3DB207E1F712E0A0E0B2E0E6ECFDE0A2
:1001300000E00BBF02C007900D92A033B107D9F7C2
:1001400010E0C3E8D0E000E006C021970109802F4D
:10015000FE010E94B404C238D10780E00807A9F765
:100160000E94F6020C94E1060C9400003FB7F8944C
:100170008091D4029091D502A091D602B091D7027D
:1001800026B5A89B05C02F3F19F00196A11DB11DF2
:100190003FBFBA2FA92F982F8827BC01CD01620F2E
:1001A000711D811D911D42E0660F771F881F991FE9
:1001B0004A95D1F708958F929F92AF92BF92CF92B6
:1001C000DF92EF92FF924B015C010E94B6006B013F
:1001D0007C010E94B6006C197D098E099F09683E5A
:1001E000734081059105A8F321E0821A9108A108C6
:1001F000B10888EEC80E83E0D81EE11CF11C811402
:100200009104A104B10429F7FF90EF90DF90CF9003
:10021000BF90AF909F908F900895AF92BF92CF9272
:10022000DF92EF92FF920F931F93CF93DF936C01B6
:100230007B018B01040F151FEB015E01AE18BF0897
:10024000C017D10759F06991D601ED91FC91019049
:10025000F081E02DC6011995892B79F7C501DF9151
:10026000CF911F910F91FF90EF90DF90CF90BF90B3
:10027000AF900895FC01538D448D252F30E0842FDD
:1002800090E0821B930B541710F0CF9608950197BE
:100290000895FC01918D828D981761F0A28DAE0FAB
:1002A000BF2FB11D5D968C91928D9F5F9F73928F32
:1002B00090E008958FEF9FEF0895FC01918D828D5E
:1002C000981731F0828DE80FF11D858D90E008952B
:1002D0008FEF9FEF0895FC01918D228D892F90E083
:1002E000805C9F4F821B91098F739927089582E349
:1002F00092E00E946B0121E0892B09F420E0822F1B
:100300000895FC01A48DA80FB92FB11DA35ABF4FAA
:100310002C91848D90E001968F739927848FA68904
:10032000B7892C93A089B1898C91837080648C9358
:10033000938D848D981306C00288F389E02D808107
:100340008F7D80830895EF92FF920F931F93CF9339
:10035000DF93EC0181E0888F9B8D8C8D98131AC000
:10036000E889F989808185FF15C09FB7F894EE89E7
:10037000FF896083E889F989808183708064808344
:100380009FBF81E090E0DF91CF911F910F91FF908F
:10039000EF900895F62E0B8D10E00F5F1F4F0F7337
:1003A0001127E02E8C8D8E110CC00FB607FCFACFF2
:1003B000E889F989808185FFF5CFCE010E9481010E
:1003C000F1CFEB8DEC0FFD2FF11DE35AFF4FF082C3
:1003D0009FB7F8940B8FEA89FB8980818062CFCF29
:1003E000CF93DF93EC01888D8823B9F0AA89BB896C
:1003F000E889F9898C9185FD03C0808186FD0DC057
:100400000FB607FCF7CF8C9185FFF2CF808185FF77
:10041000EDCFCE010E948101E9CFDF91CF91089508
:1004200080E090E0892B29F00E94770181110E94E1
:10043000000080E090E0892B49F080E090E0892B7B
:1004400029F00E94000081110E94000080E090E0ED
:10045000892B49F080E090E0892B29F00E94000070
:1004600081110E94000080E090E0892B49F080E03B
:1004700090E0892B29F00E94000081110C9400006B
:1004800008951F920F920FB60F9211242F933F934E
:100490008F939F93AF93BF938091D0029091D1029D
:1004A000A091D202B091D3023091CF0223E0230F6A
:1004B0002D3758F50196A11DB11D2093CF028093D1
:1004C000D0029093D102A093D202B093D302809134
:1004D000D4029091D502A091D602B091D702019694
:1004E000A11DB11D8093D4029093D502A093D60292
:1004F000B093D702BF91AF919F918F913F912F9170
:100500000F900FBE0F901F90189526E8230F0296AC
:10051000A11DB11DD2CF1F920F920FB60F921124C1
:100520000BB60F922F933F934F935F936F937F93ED
:100530008F939F93AF93BF93EF93FF9382E392E0E8
:100540000E948101FF91EF91BF91AF919F918F9197
:100550007F916F915F914F913F912F910F900BBEC3
:100560000F900FBE0F901F9018951F920F920FB60D
:100570000F9211240BB60F922F938F939F93EF93AB
:10058000FF93E0914202F09143028081E0914802A2
:10059000F091490282FD1DC0908180914B028F5FD6
:1005A0008F7320914C02821741F0E0914B02F0E0F2
:1005B000EE5CFD4F958F80934B02FF91EF919F91E1
:1005C0008F912F910F900BBE0F900FBE0F901F9029
:1005D00018958081F2CF1F920F920FB60F921124BF
:1005E0005A980F900FBE0F901F901895CF93DF93DE
:1005F000CDB7DEB7E1970FB6F894DEBF0FBECDBF23
:10060000789484B5826084BD84B5816084BD85B5ED
:10061000826085BD85B5816085BD80916E008160F9
:1006200080936E001092810080918100826080939F
:1006300081008091810081608093810080918000A1
:100640008160809380008091B10084608093B100CC
:100650008091B00081608093B000809191008260B1
:1006600080939100809191008160809391008091AE
:1006700090008160809390008091A10082608093BF
:10068000A1008091A10081608093A1008091A000D1
:1006900081608093A000809121018260809321017C
:1006A00080912101816080932101809120018160EE
:1006B0008093200180917A00846080937A008091F9
:1006C0007A00826080937A0080917A0081608093C2
:1006D0007A0080917A00806880937A001092C1003D
:1006E00068EE73E080E090E00E94DB0087E08AB96A
:1006F00088EF8BB9E0914202F091430282E080835F
:10070000E0913E02F0913F0281E08083E09140025F
:10071000F091410280EA808310924A02E091460201
:10072000F091470286E08083E0914402F091450217
:10073000808180618083E0914402F0914502808154
:1007400088608083E0914402F09145028081806856
:100750008083E0914402F091450280818F7D808307
:100760008091C10084648093C1008091C000816049
:100770008093C00061E070E080E090E00E94DB00C8
:100780009E012F5F3F4F4901CE018F9699AB88ABF9
:100790001E0190E3290E311C2E01E9E14E0E511C81
:1007A00039016094709482E392E00E946B01892B7E
:1007B00009F489C082E392E00E944901873509F07B
:1007C00082C08091C0008E7F8093C0005A9A61E001
:1007D00070E080E090E00E94DB0067E170E090E074
:1007E00080E00E94E1058C01009709F06FC0198E2E
:1007F0009E01275E3F4F7901C401D9012D91FC0173
:100800002193CF0128A939A9A217B307B9F780E02E
:100810006CE8F70131917F0128E0782F7327082ECB
:10082000000C990BAC0155954795842F70FF02C0C1
:10083000862F84273595215081F7E214F30449F778
:10084000282F082E000C330B3F8B888FF12CE12CC6
:10085000C0903002D0903102CE14DF04B1F45401C4
:10086000F50161915F01F1E0EF16F104F1F5C301CB
:100870008A0D9B1D892B11F424E0622782E392E00C
:100880000E94A3014A145B0459F79FEFE91AF90A81
:10089000E5E0EE16F104E1F6FFEFCF1ADF0A25E0FE
:1008A000C216D10479F1D0923102C0923002011502
:1008B000110519F0C8010E94580568EC70E080E04D
:1008C00090E00E94DB000E9410026DCFFC011082BC
:1008D00068E172E00E94CB0646E150E0B801CE012B
:1008E00049960E94D2061FA683CF34E0E316F10496
:1008F00029F6C3018A0D9B1D089709F0BFCF86E436
:100900006827BCCF1092310210923002D0CFE2E3C0
:10091000F2E01382128288EE93E0A0E0B0E08483DC
:100920009583A683B7838AE092E09183808385ECE8
:1009300090E09587848784EC90E09787868780ECA9
:1009400090E0918B808B81EC90E0938B828B82EC9A
:1009500090E0958B848B86EC90E0978B868B118E44
:10096000128E138E148E0895EE0FFF1F881F8BBFFB
:100970000790F691E02D19940F931F93CF93DF9377
:100980008230910510F482E090E0E091DA02F0917B
:10099000DB0230E020E0B0E0A0E0309799F42115D0
:1009A000310509F44AC0281B390B24303105D8F52C
:1009B0008A819B816115710589F1FB019383828393
:1009C000FE0111C0408151810281138148175907EE
:1009D000E0F04817590799F4109761F012960C93BC
:1009E000129713961C933296CF01DF91CF911F91EE
:1009F0000F9108950093DA021093DB02F4CF2115D2
:100A0000310551F04217530738F0A901DB019A0173
:100A1000BD01DF01F801C1CFEF01F9CF9093DB02F7
:100A20008093DA02CDCFFE01E20FF31F8193919301
:100A30002250310939832883D7CF2091D8023091B1
:100A4000D902232B41F4209102023091030230930A
:100A5000D9022093D8022091000230910102211581
:100A6000310541F42DB73EB7409104025091050283
:100A7000241B350BE091D802F091D902E217F3075D
:100A8000A0F42E1B3F0B2817390778F0AC014E5FFE
:100A90005F4F2417350748F04E0F5F1F5093D90260
:100AA0004093D802819391939FCFF0E0E0E09CCFF8
:100AB000CF93DF930097E9F0FC0132971382128203
:100AC000A091DA02B091DB02ED0130E020E0109756
:100AD000A1F420813181820F931F2091D80230919F
:100AE000D9022817390709F061C0F093D902E093C1
:100AF000D802DF91CF910895EA01CE17DF07E8F51C
:100B00004A815B819E0141155105B1F7E901FB83E3
:100B1000EA8349915991C40FD51FEC17FD0761F481
:100B2000808191810296840F951FE90199838883C2
:100B3000828193819B838A83F0E0E0E012968D911D
:100B40009C9113970097B9F52D913C911197CD0188
:100B50000296820F931F2091D8023091D902281754
:100B6000390739F6309751F51092DB021092DA020C
:100B7000B093D902A093D802BCCFD383C283408163
:100B80005181840F951FC817D90761F44E5F5F4FDD
:100B900088819981480F591F518340838A819B81A5
:100BA000938382832115310509F0B0CFF093DB02E6
:100BB000E093DA029ECFFD01DC01C0CF13821282E6
:100BC000D7CF4F925F926F927F928F929F92AF9208
:100BD000BF92CF92DF92EF92FF920F931F93CF932A
:100BE000DF938C01009799F4CB01DF91CF911F9196
:100BF0000F91FF90EF90DF90CF90BF90AF909F90BC
:100C00008F907F906F905F904F900C94BC04FC018C
:100C1000E60FF71F9C0122503109E217F30708F491
:100C2000AEC0D901CD91DC911197C617D70720F13D
:100C3000C530D10578F0CE0104978617970750F09C
:100C4000C61BD70B2297C193D1936D937C93CF0191
:100C50000E945805C801DF91CF911F910F91FF901D
:100C6000EF90DF90CF90BF90AF909F908F907F904C
:100C70006F905F904F9008955B01AC1ABD0A4C01D4
:100C80008C0E9D1EA091DA02B091DB02512C412CFA
:100C9000F12CE12C109731F58091D8029091D90276
:100CA0008815990509F05CC04616570608F058C02B
:100CB0008091000290910102009741F48DB79EB798
:100CC0004091040250910502841B950BE817F90727
:100CD00008F055C0F093D902E093D802F90171836E
:100CE0006083B8CF8D919C91119712966C9012975A
:100CF00013967C901397A815B90559F56C0142E03D
:100D0000C40ED11CCA14DB0420F1AC014A195B09E2
:100D1000DA011296159780F06282738251834083C4
:100D2000D9016D937C93E114F10471F0D70113960E
:100D3000FC93EE9312978ECF22968C0F9D1FF90194
:100D400091838083F301EFCFF093DB02E093DA022B
:100D500081CF4816590608F42C017D01D3019ACFA2
:100D6000CB010E94BC047C01009749F0AE01B801A0
:100D70000E94C206C8010E94580587016BCF10E08F
:100D800000E068CFFB01DC0102C001900D924150F0
:100D90005040D8F70895FB01DC0101900D9200202E
:100DA000E1F70895FB01DC014150504048F001900B
:100DB0000D920020C9F701C01D9241505040E0F74C
:060DC0000895F894FFCF36
:100DC6000000DC02800000000000A3010D013A01D2
:100DD600F0016B0149015D01596174736B697620FD
:100DE6004F6C6568204F6C65686F767963680000A4
:00000001FF
