:100000000C9435010C9466010C9466010C94660105
:100010000C9466010C9466010C9466010C946601C4
:100020000C9466010C9466010C9466010C946601B4
:100030000C9466010C9466010C9466010C946601A4
:100040000C9466010C9466010C9466010C94660194
:100050000C9466010C9466010C9466010C94950650
:100060000C9466010C9409070C94DF060C9466014D
:100070000C9466010C9466010C9466010C94660164
:100080000C9466010C9466010C9466010C94660154
:100090000C9466010C9466010C9466010C94660144
:1000A0000C9466010C9466010C9466010C94660134
:1000B0000C9466010C9466010C9466010C94660124
:1000C0000C9466010C9466010C9466010C94660114
:1000D0000C9466010C9466010C9466010C94660104
:1000E0000C9466010C949B010C9491030C94C10137
:1000F0000C94AF010C94B3010C94AB010C949401DB
:100100000C9484070C94CB010C9498010C94C701B7
:100110000C94A1010C9444030C94FE020C940C0367
:100120000C9490010C94DB020C94C6010C94860193
:100130000C94B9010C948C010C94EA020C94AE025C
:100140000C94A5010C94BD0100002100240027009F
:100150002A002D00300033000101000004010701D6
:100160000A0100002200250028002B002E0031008B
:10017000340002010000050108010B0100000A0B18
:1001800002090C0D0E080703040100000000000026
:10019000000000000000000000000000000000005F
:1001A000000000000000000012111000000000001C
:1001B000000000000000000000000000000000003F
:1001C0000000000020002300260029002C002F0042
:1001D00032000001000003010601090105050505C3
:1001E000070508080808020202020A0A08080404AF
:1001F00004040101010101010101030303030303DD
:100200000303040707070C0C0C0C0C0C0C0C02026B
:10021000020206060606060606060B0B0B0B0B0B68
:100220000B0B0102102020080810204010204080F5
:1002300002010201080402010102040810204080AA
:100240008040201008040201800402018040201038
:100250000804020108040201010204081020408081
:100260000102040810204080840711241FBECFEF34
:10027000D1E2DEBFCDBF00E00CBF23E0AEE3B2E0D1
:1002800001C01D92A030B207E1F712E0A0E0B2E099
:10029000E0E2F7E100E00BBF02C007900D92AE3341
:1002A000B107D9F711E0C5E3D1E000E006C021971E
:1002B0000109802FFE010E94440BC433D10780E066
:1002C0000807A9F70E94C6070C948E0B0C94000037
:1002D0008150823108F05AC0E82FF0E08827EC58AE
:1002E000FE4F8F4F0C94440B9401980186018C01B2
:1002F0009001C6019B01A101A501AB01AF01B301B2
:10030000B901BD01C601C101C701CB0180918000C7
:100310008F77809380000895809180008F7DF9CF42
:1003200080918000877FF5CF84B58F7784BD089555
:1003300084B58F7DFBCF8091B0008F778093B00024
:1003400008958091B0008F7DF9CF809190008F77D4
:10035000809390000895809190008F7DF9CF8091D7
:100360009000877FF5CF8091A0008F778093A000C9
:1003700008958091A0008F7DF9CF8091A000877FA4
:10038000F5CF809120018F7780932001089580918F
:1003900020018F7DF9CF80912001877FF5CFCF930A
:1003A000DF93282F30E0F901E458FE4F8491F901E2
:1003B000EE5DFD4FD491F901E452FE4FC491CC2380
:1003C000A1F081110E946801EC2FF0E0EE0FFF1FF9
:1003D000EE53FE4FA591B491EC91ED2381E090E0B6
:1003E00009F480E0DF91CF91089580E090E0FACFAA
:1003F0001F93CF93DF93282F30E0F901E458FE4F8D
:100400008491F901EE5DFD4FD491F901E452FE4F64
:10041000C491CC23A9F0162F81110E946801EC2F02
:10042000F0E0EE0FFF1FEE59FE4FA591B4918FB78C
:10043000F894EC91111108C0D095DE23DC938FBFA6
:10044000DF91CF911F910895DE2BF8CFCF93DF93EB
:1004500090E0FC01EE5DFD4F249184529E4FFC0123
:1004600084918823D1F090E0880F991FFC01E85B0C
:10047000FE4FA591B491FC01EE59FE4FC591D49168
:1004800061110EC09FB7F8948C91E22FE0958E23F6
:100490008C932881E223E8839FBFDF91CF91089559
:1004A0008FB7F894EC91E22BEC938FBFF6CF3FB768
:1004B000F89480913F0290914002A0914102B09146
:1004C000420226B5A89B05C02F3F19F00196A11D39
:1004D000B11D3FBFBA2FA92F982F8827BC01CD018E
:1004E000620F711D811D911D42E0660F771F881FED
:1004F000991F4A95D1F708958F929F92AF92BF921C
:10050000CF92DF92EF92FF924B015C010E94570263
:100510006B017C010E9457026C197D098E099F09AD
:10052000683E734081059105A8F321E0821A910885
:10053000A108B10888EEC80E83E0D81EE11CF11CAA
:1005400081149104A104B10429F7FF90EF90DF908A
:10055000CF90BF90AF909F908F900895AF92BF9231
:10056000CF92DF92EF92FF920F931F93CF93DF937F
:100570006C017B018B01040F151FEB015E01AE18AE
:10058000BF08C017D10759F06991D601ED91FC91D0
:100590000190F081E02DC6011995892B79F7C501ED
:1005A000DF91CF911F910F91FF90EF90DF90CF904F
:1005B000BF90AF900895FC01538D448D252F30E0FE
:1005C000842F90E0821B930B541710F0CF96089560
:1005D00001970895FC01918D828D981761F0A28D8D
:1005E000AE0FBF2FB11D5D968C91928D9F5F9F7353
:1005F000928F90E008958FEF9FEF0895FC01918D09
:10060000828D981731F0828DE80FF11D858D90E075
:1006100008958FEF9FEF0895FC01918D228D892F12
:1006200090E0805C9F4F821B91098F7399270895FA
:1006300087E492E00E940C0321E0892B09F420E07A
:10064000822F0895FC01A48DA80FB92FB11DA35AC4
:10065000BF4F2C91848D90E001968F739927848FE2
:10066000A689B7892C93A089B1898C918370806405
:100670008C93938D848D981306C00288F389E02DA6
:1006800080818F7D80830895EF92FF920F931F9357
:10069000CF93DF93EC0181E0888F9B8D8C8D981335
:1006A0001AC0E889F989808185FF15C09FB7F89441
:1006B000EE89FF896083E889F9898081837080648D
:1006C00080839FBF81E090E0DF91CF911F910F91D8
:1006D000FF90EF900895F62E0B8D10E00F5F1F4FE7
:1006E0000F731127E02E8C8D8E110CC00FB607FCF6
:1006F000FACFE889F989808185FFF5CFCE010E9484
:100700002203F1CFEB8DEC0FFD2FF11DE35AFF4FCC
:10071000F0829FB7F8940B8FEA89FB898081806211
:10072000CFCFCF93DF93EC01888D8823B9F0AA89CE
:10073000BB89E889F9898C9185FD03C0808186FD9C
:100740000DC00FB607FCF7CF8C9185FFF2CF8081EB
:1007500085FFEDCFCE010E942203E9CFDF91CF913B
:10076000089580E090E0892B29F00E941803811100
:100770000E94000080E090E0892B49F080E090E04A
:10078000892B29F00E94000081110E94000080E066
:1007900090E0892B49F080E090E0892B29F00E94BD
:1007A000000081110E94000080E090E0892B49F058
:1007B00080E090E0892B29F00E94000081110C94C8
:1007C00000000895FC0101900020E9F73197AF0186
:1007D000481B590BBC0187E492E00C94AE028F9247
:1007E0009F92AF92BF920F931F93CF93DF93CDB79A
:1007F000DEB7A1970FB6F894DEBF0FBECDBF19A22A
:10080000423008F44AE08E010F5D1F4F842E912C78
:10081000B12CA12CA50194010E94220BE62FB90155
:10082000CA01EA30F4F4E05DD801EE938D01232B88
:10083000242B252B79F790E080E0109719F0CD015B
:100840000E94E203A1960FB6F894DEBF0FBECDBFA3
:10085000DF91CF911F910F91BF90AF909F908F909C
:100860000895E95CE1CF4F925F926F927F928F92F1
:100870009F92AF92BF92CF92DF92EF92FF920F932F
:100880001F93CF936B017C01742EAC019B010E94DE
:100890001D0B882399F082E192E0CF911F910F9177
:1008A000FF90EF90DF90CF90BF90AF909F908F9090
:1008B0007F906F905F904F900C94E2034601570138
:1008C000E894B7F82FEF3FEF4FE75FE7C501B401BA
:1008D0000E941D0B81110DC02FEF3FEF4FE75FE727
:1008E000C501B4010E94E60818161CF486E192E0E6
:1008F000D4CF2FEF3FEF4FE75FE4C701B6010E946F
:10090000180B18161CF48AE192E0C7CF2FEF3FEFC7
:100910004FE75FECC701B6010E94E60887FDF3CF01
:1009200020E030E0A901C701B6010E94E60810E00E
:1009300000E087FF0AC06DE287E492E00E94440372
:100940008C01F7FAF094F7F8F094C0E060E070E002
:1009500080E09FE37C1641F020E030E040E251E48B
:100960000E94770ACF5FF6CFA70196010E940B0A7B
:100970002B013C010E94E90A4B015C014AE00E9404
:10098000EF037C01E00EF11ECC23C1F1C501B401DF
:100990000E94EB089B01AC01C301B2010E940A0A4C
:1009A0004B015C016EE287E492E00E944403E80E92
:1009B000F91EC15018F120E030E040E251E4C501D9
:1009C000B4010E944C092B013C010E94E90A4B0131
:1009D000B12CA12C4AE0C501B4010E94EF03E80E3E
:1009E000F91EC501B4010E94EB089B01AC01C301D3
:1009F000B2010E940A0A4B015C01DBCFC701CF9113
:100A00001F910F91FF90EF90DF90CF90BF90AF902C
:100A10009F908F907F906F905F904F900895CF92AE
:100A2000DF92EF92FF920F931F93CF93DF9380910A
:100A3000FB02882309F459C02FB7F8948091430230
:100A400090914402A0914502B09146022FBF80933D
:100A5000E5029093E602A093E702B093E8021092B9
:100A6000FB0261E08091E4020E94260260E0809136
:100A7000E4020E94F80162E070E080E090E00E94F1
:100A80007C0261E08091E4020E94F80160E08091C4
:100A9000E4020E9426028091E40290E0FC01EE5DF7
:100AA000FD4F6491FC01E452FE4FE491F0E0EE0F43
:100AB000FF1FEE53FE4F859194910AEF10E020E066
:100AC00030E0462F0E943F076115710581059105B1
:100AD00089F581E08093FC02DF91CF911F910F9106
:100AE000FF90EF90DF90CF9008958FB7F8944091EA
:100AF00043025091440260914502709146028FBFBB
:100B00008091E5029091E602A091E702B091E8029F
:100B1000481B590B6A0B7B0B8091FE029091FF02E0
:100B2000B0E0A0E0481759076A077B0708F084CFB8
:100B300080E0D2CF6F5F7F4F8F4F9F4F9F70672BAB
:100B4000682B692B31F21092E9021092EA0210929E
:100B5000EB021092EC021092ED021092EE02109253
:100B6000EF021092F00210E0CBE9D0E00E945702B1
:100B70006B017C018091E4020E94CF01892BD1F4AA
:100B80000E945702AB01BC014C195D096E097F0937
:100B90008091F8029091FD02890F9927991F092EE3
:100BA000000CAA0BBB0B84179507A607B70710F715
:100BB00082E090CFCE010197F1F78091E4020E948C
:100BC000CF01019719F52091E9023091EA02409195
:100BD000EB025091EC026091ED027091EE02809177
:100BE000EF029091F002A1E00E94820B2093E902B3
:100BF0003093EA024093EB025093EC026093ED02D3
:100C00007093EE028093EF029093F002173219F185
:100C10002091E9023091EA024091EB025091EC02FE
:100C20006091ED027091EE028091EF029091F002DE
:100C300001E00E944C0B2093E9023093EA024093BA
:100C4000EB025093EC026093ED027093EE028093FE
:100C5000EF029093F0020E9457026B017C01809199
:100C6000E4020E94CF010197A1F40E945702AB0158
:100C7000BC014C195D096E097F098091FA0290E070
:100C8000B0E0A0E084179507A607B70740F783E018
:100C900021CF1F5F183209F069CF83E290E00197FE
:100CA000F1F761E08091E4020E94260261E0809108
:100CB000E4020E94F801F091E902D090EA02E0908B
:100CC000EB02F090EC021091ED02D091EE02C09197
:100CD000EF02B091F0022F2F3D2DA701612F7D2F44
:100CE0008C2F9B2F08E10E94670BA32FE22F2093EC
:100CF000F1023093F2022F2F3D2DA701612F7D2F9E
:100D00008C2F9B2F08E00E94670B2093F3023093F7
:100D1000F402F093F502E20FEA0F3E0FF31303C063
:100D20001092FC0205CF84E0D5CE1F920F920FB631
:100D30000F9211242F933F938F939F93AF93BF9361
:100D40008091430290914402A0914502B0914602E5
:100D500030913E0223E0230F2D3758F50196A11D57
:100D6000B11D20933E028093430290934402A093CE
:100D70004502B093460280913F0290914002A091BB
:100D80004102B09142020196A11DB11D80933F0224
:100D900090934002A0934102B0934202BF91AF9161
:100DA0009F918F913F912F910F900FBE0F901F90A9
:100DB000189526E8230F0296A11DB11DD2CF1F92D0
:100DC0000F920FB60F9211240BB60F922F933F93F1
:100DD0004F935F936F937F938F939F93AF93BF9343
:100DE000EF93FF9387E492E00E942203FF91EF913B
:100DF000BF91AF919F918F917F916F915F914F9133
:100E00003F912F910F900BBE0F900FBE0F901F9030
:100E100018951F920F920FB60F9211240BB60F92D6
:100E20002F938F939F93EF93FF93E0915702F0914D
:100E300058028081E0915D02F0915E0282FD1DC04A
:100E40009081809160028F5F8F7320916102821781
:100E500041F0E0916002F0E0E95BFD4F958F8093F7
:100E60006002FF91EF919F918F912F910F900BBE98
:100E70000F900FBE0F901F9018958081F2CFCF92E8
:100E8000DF92EF92FF920F931F93E82FF92F05C087
:100E9000015011092109310961F1908196239417BC
:100EA000B9F305C0015011092109310911F19081EF
:100EB00096239413F7CFC12CD12CE12CF12C0AC02E
:100EC0008FEFC81AD80AE80AF80A0C151D052E0576
:100ED0003F0579F080818623841791F36C2D7D2D59
:100EE0008E2D9F2D1F910F91FF90EF90DF90CF904F
:100EF000089560E070E080E090E01F910F91FF9016
:100F0000EF90DF90CF900895E7E4F2E01382128231
:100F100088EE93E0A0E0B0E084839583A683B78356
:100F200084E092E09183808385EC90E095878487CC
:100F300084EC90E09787868780EC90E0918B808BA3
:100F400081EC90E0938B828B82EC90E0958B848B8C
:100F500086EC90E0978B868B118E128E138E148EFA
:100F6000E4EEF2E080E5828B838B82E3848B8BE17D
:100F7000858B86E4868B81E0878B8EE1818F84E38D
:100F800098E0938F828F84E180830895789484B56C
:100F9000826084BD84B5816084BD85B5826085BD75
:100FA00085B5816085BD80916E00816080936E0003
:100FB00010928100809181008260809381008091F5
:100FC00081008160809381008091800081608093A6
:100FD00080008091B10084608093B1008091B00066
:100FE00081608093B0008091910082608093910035
:100FF0008091910081608093910080919000816048
:10100000809390008091A10082608093A1008091E4
:10101000A10081608093A1008091A00081608093F5
:10102000A0008091210182608093210180912101A3
:101030008160809321018091200181608093200153
:1010400080917A00846080937A0080917A00826037
:1010500080937A0080917A00816080937A008091F9
:101060007A00806880937A001092C100E091570264
:10107000F091580282E08083E0915302F091540293
:101080001082E0915502F091560280E18083109227
:101090005F02E0915B02F0915C0286E08083E09168
:1010A0005902F0915A02808180618083E091590257
:1010B000F0915A02808188608083E0915902F0911A
:1010C0005A02808180688083E0915902F0915A022F
:1010D00080818F7D80838EE192E00E94E20382E333
:1010E00092E00E94E2030E940F05C12C90E8D92EE5
:1010F00098E8E92E93ECF92E811113C06091F30268
:101100007091F40277FF52C07F7790E080E00E94F8
:10111000EB0820E030E040E251EC0E94770A6B01DE
:101120007C010E940F0581114AC06091F10270910B
:10113000F20290E080E00E94EB0820E030E040E224
:1011400051E40E94770A4B015C016091FC02662326
:1011500051F070E090E080E04AE00E94EF0382E30B
:1011600092E00E94E20385E392E00E94E20341E004
:10117000C501B4010E94330488E392E00E94E203B7
:101180008AE392E00E94E20341E0C701B6010E94B7
:10119000330482E392E00E94E20368EE73E080E0B1
:1011A00090E00E947C020E94B1039DCF90E080E01D
:1011B0000E94EB0820E030E040E251E4AECF812C09
:1011C000912C80E8A82E8FEBB82EBFCF0E94280963
:1011D00008F481E00895E89409C097FB3EF49095E7
:1011E0008095709561957F4F8F4F9F4F9923A9F000
:1011F000F92F96E9BB279395F6958795779567958F
:10120000B795F111F8CFFAF4BB0F11F460FF1BC0D2
:101210006F5F7F4F8F4F9F4F16C0882311F096E965
:1012200011C0772321F09EE8872F762F05C0662313
:1012300071F096E8862F70E060E02AF09A95660FCC
:10124000771F881FDAF7880F9695879597F9089585
:10125000990F0008550FAA0BE0E8FEEF16161706C7
:10126000E807F907C0F012161306E407F50798F02F
:10127000621B730B840B950B39F40A2661F0232B48
:10128000242B252B21F408950A2609F4A140A695C4
:101290008FEF811D811D08950E945F090C94D00974
:1012A0000E94C20938F00E94C90920F0952311F06C
:1012B0000C94B9090C94BF0911240C94040A0E94DF
:1012C000E10970F3959FC1F3950F50E0551F629FA0
:1012D000F001729FBB27F00DB11D639FAA27F00D8F
:1012E000B11DAA1F649F6627B00DA11D661F829FB6
:1012F0002227B00DA11D621F739FB00DA11D621F9B
:10130000839FA00D611D221F749F3327A00D611DB7
:10131000231F849F600D211D822F762F6A2F112499
:101320009F5750409AF0F1F088234AF0EE0FFF1FCC
:10133000BB1F661F771F881F91505040A9F79E3F23
:10134000510580F00C94B9090C94040A5F3FE4F352
:10135000983ED4F3869577956795B795F795E79579
:101360009F5FC1F7FE2B880F911D9695879597F982
:10137000089597F99F6780E870E060E008959FEF17
:1013800080EC089500240A9416161706180609061C
:10139000089500240A9412161306140605060895EB
:1013A000092E0394000C11F4882352F0BB0F40F473
:1013B000BF2B11F460FF04C06F5F7F4F8F4F9F4FB3
:1013C000089557FD9058440F551F59F05F3F71F035
:1013D0004795880F97FB991F61F09F3F79F087959C
:1013E0000895121613061406551FF2CF4695F1DF25
:1013F00008C0161617061806991FF1CF86957105B5
:10140000610508940895E894BB2766277727CB01E8
:1014100097F908955058BB27AA270E94220A0C94D6
:10142000D0090E94C20938F00E94C90920F039F49D
:101430009F3F19F426F40C94BF090EF4E095E7FBE6
:101440000C94B909E92F0E94E10958F3BA17620711
:1014500073078407950720F079F4A6F50C94030A26
:101460000EF4E0950B2EBA2FA02D0B01B9019001BF
:101470000C01CA01A0011124FF27591B99F0593F03
:1014800050F4503E68F11A16F040A22F232F342F4B
:101490004427585FF3CF469537952795A795F04099
:1014A0005395C9F77EF41F16BA0B620B730B840BAE
:1014B000BAF09150A1F0FF0FBB1F661F771F881F66
:1014C000C2F70EC0BA0F621F731F841F48F48795BE
:1014D00077956795B795F7959E3F08F0B0CF9395B0
:1014E000880F08F09927EE0F9795879508950E9429
:1014F0008B0A0C94D0090E94C90958F00E94C209B5
:1015000040F029F45F3F29F00C94B90951110C9473
:10151000040A0C94BF090E94E10968F39923B1F30E
:10152000552391F3951B550BBB27AA276217730709
:10153000840738F09F5F5F4F220F331F441FAA1F9D
:10154000A9F335D00E2E3AF0E0E832D09150504059
:10155000E695001CCAF72BD0FE2F29D0660F771F07
:10156000881FBB1F261737074807AB07B0E809F0ED
:10157000BB0B802DBF01FF2793585F4F3AF09E3F72
:10158000510578F00C94B9090C94040A5F3FE4F318
:10159000983ED4F3869577956795B795F7959F5FB5
:1015A000C9F7880F911D9695879597F90895E1E001
:1015B000660F771F881FBB1F621773078407BA0760
:1015C00020F0621B730B840BBA0BEE1F88F7E095BB
:1015D00008950E94E90988F09F5798F0B92F99273C
:1015E000B751B0F0E1F0660F771F881F991F1AF00E
:1015F000BA95C9F714C0B13091F00E94030AB1E066
:1016000008950C94030A672F782F8827B85F39F064
:10161000B93FCCF3869577956795B395D9F73EF4A6
:1016200090958095709561957F4F8F4F9F4F08954E
:101630000E94280908F48FEF08950E942809880B5A
:10164000990B0895A1E21A2EAA1BBB1BFD010DC028
:10165000AA1FBB1FEE1FFF1FA217B307E407F50762
:1016600020F0A21BB30BE40BF50B661F771F881F3E
:10167000991F1A9469F760957095809590959B01D4
:10168000AC01BD01CF010895EE0FFF1F881F8BBF76
:101690000790F691E02D1994002E083090F0982FC5
:1016A000872F762F652F542F432F322F2227085054
:1016B000F4CF220F331F441F551F661F771F881F4B
:1016C000991F0A95B2F7002D089597FD1094002EEA
:1016D000083098F00850232F342F452F562F672FAE
:1016E000782F892F912DF4CF15949795879577951D
:1016F000679557954795379527950A95AAF7112429
:10170000002D08950024A7FD00942A0F301D401DD0
:10171000501D601D701D801D901D0895F894FFCF11
:10172000000000004403AE02DB0291030C03EA0256
:10173000FE026E616E00696E66006F7666000A7466
:101740006573742063617074657572204454483207
:0E17500032000D0A00683D000900743D0000E3
:00000001FF
