:100000000C947C010C94AD010C94AD010C94AD01E9
:100010000C94AD010C94AD010C94AD010C94AD01A8
:100020000C94AD010C94AD010C94AD010C94AD0198
:100030000C94AD010C94AD010C94AD010C94AD0188
:100040000C94AD010C94AD010C94AD010C94AD0178
:100050000C94AD010C94AD010C94AD010C949C0476
:100060000C94AD010C94AD010C94AD010C94AD0158
:100070000C94AD010C94AD010C94AD010C94AD0148
:100080000C94E6040C94AD010C94AD010C94AD01FC
:100090000C94AD010C94AD010C94AD010C94AD0128
:1000A0000C94AD010C94AD010C94AD010C94AD0118
:1000B0000C94AD010C94AD010C94AD010C94AD0108
:1000C0000C94AD010C94AD010C94AD010C94AD01F8
:1000D0000C94AD010C94AD010C94AD010C94AD01E8
:1000E0000C94AD010C9446020C94FE010C944A024F
:1000F0000C9403020C9442020C9419020C943C02DE
:100100000C942A020C9415020C9450020C942402B4
:100110000C9459080C9434020C941D020C94B102F6
:100120000C9438020C94DE020C9421020C94DF0231
:100130000C942E020C9454020C942F043030003096
:10014000310030320030330030340030350030368A
:1001500000303700303800303900313000313100A4
:100160003132003133003134003135003136003165
:10017000370031380031390032300032310032324C
:10018000003233003234003235003236003237006C
:10019000323800323900333000333100333200332B
:1001A000330033340033350033360033370033380F
:1001B000003339003430003431003432003433003D
:1001C00034340034350034360034370034380034E9
:1001D00039003530003531003532003533003534E3
:1001E00000353500353600353700353800353900F3
:1001F00000000A0B02090C0D0E08070304010000A1
:1002000000000000000000000000000000000000EE
:1002100000000000000000000000000012111000AB
:1002200000000000000000000000000000000000CE
:1002300000000000000000002200250028002B0024
:100240002E003100340002010000050108010B01FD
:1002500000002100240027002A002D003000330078
:1002600001010000040107010A0105050505070554
:1002700008080808020202020A0A08080404040422
:10028000010101010101010103030303030303034E
:10029000040707070C0C0C0C0C0C0C0C02020202DD
:1002A00006060606060606060B0B0B0B0B0B0B0BC6
:1002B0000102102020080810204010204080020178
:1002C000020108040201010204081020408080405D
:1002D000201008040201800402018040201008045C
:1002E00002010804020101020408102040800102FA
:1002F000040810204080590811241FBECFEFD1E21E
:10030000DEBFCDBF00E00CBF12E0A0E0B2E0E2E053
:10031000F1E100E00BBF02C007900D92AE32B107D1
:10032000D9F722E0AEE2B2E001C01D92AE35B207CD
:10033000E1F711E0CCE7D1E000E006C02197010928
:10034000802FFE010E947708CB37D10780E0080795
:10035000A9F70E9490050C947F080C94000090E08F
:10036000FC01E055FD4F249186599D4FFC0184917D
:10037000882399F090E0880F991FFC01E05BFD4F06
:10038000A591B491FC01EA5CFD4F859194918FB7E2
:10039000F894EC91E22BEC938FBF0895282F30E076
:1003A000F901E051FE4F9491F901E055FD4F449160
:1003B00026593D4FF9012491222309F435C0992390
:1003C00011F191509231F8F4E92FF0E08827E451CF
:1003D000FE4F8F4F0C9477081D022102FE0115027B
:1003E0001902030224022A022E02340238023C02BD
:1003F0004202460203024A025002540280918000E7
:100400008F7780938000E22FF0E0EE0FFF1FEA5C11
:10041000FD4FA591B4918FB7F894EC91611148C04C
:1004200040954E234C938FBF0895809180008F7D1F
:10043000E8CF80918000877FE4CF84B58F7784BD3B
:10044000E2CF84B58F7DFBCF8091B0008F77809312
:10045000B000D9CF8091B0008F7DF9CF809190000E
:100460008F7780939000CFCF809190008F7DF9CFD0
:1004700080919000877FF5CF8091A0008F77809347
:10048000A000C1CF8091A0008F7DF9CF8091A00006
:10049000877FF5CF809120018F7780932001B3CFA4
:1004A000809120018F7DF9CF80912001877FF5CF4A
:1004B0004E2BB8CF3FB7F8948091420290914302FF
:1004C000A0914402B091450226B5A89B05C02F3FDC
:1004D00019F00196A11DB11D3FBFBA2FA92F982F6A
:1004E0008827BC01CD01620F711D811D911D42E065
:1004F000660F771F881F991F4A95D1F708958F922D
:100500009F92AF92BF92CF92DF92EF92FF924B01F8
:100510005C010E945A026B017C010E945A026C1914
:100520007D098E099F09683E734081059105A8F3F6
:1005300021E0821A9108A108B10888EEC80E83E074
:10054000D81EE11CF11C81149104A104B10429F707
:10055000FF90EF90DF90CF90BF90AF909F908F90E3
:100560000895AF92BF92CF92DF92EF92FF920F93D6
:100570001F93CF93DF936C017B018B01040F151F39
:10058000EB015E01AE18BF08C017D10759F06991A1
:10059000D601ED91FC910190F081E02DC6011995F5
:1005A000892B79F7C501DF91CF911F910F91FF90B2
:1005B000EF90DF90CF90BF90AF900895089590E0B6
:1005C00080E00895CF93DF93EC0160E08E810E947C
:1005D000CE0161E08E810E94CE0160E08E810E949A
:1005E000CE018BE891E00197F1F7DF91CF9108956B
:1005F000CF92DF92EF92FF920F931F93CF93DF93EF
:100600006C017C0187E0E80EF11CD0E0C0E0062F11
:1006100010E0B8010C2E02C0759567950A94E2F7B8
:100620006170F70181917F010E94CE012196C43053
:10063000D10579F7C601DF91CF911F910F91FF90FE
:10064000EF90DF90CF900C94E202CF92DF92EF9286
:10065000FF920F931F93CF93DF93EC01F62E642F3D
:100660008C810E94CE018D818F3F19F060E00E9445
:10067000CE010F2D10E08F8584FF25C06E0187E02D
:10068000C80ED11CF12CE12CB8010E2C02C07595BE
:1006900067950A94E2F76170F60181916F010E94FB
:1006A000CE01FFEFEF1AFF0A88E0E816F10461F7C8
:1006B000CE01DF91CF911F910F91FF90EF90DF90CE
:1006C000CF900C94E202B80184E0759567958A9505
:1006D000E1F7CE010E94F8026F2DCE01DF91CF919C
:1006E0001F910F91FF90EF90DF90CF900C94F80244
:1006F00040E0682F86E492E00C942503CF93DF93CB
:10070000823029F49091550298609093550280931D
:10071000590210925A0280E480935B0280E1809338
:100720005C0280E580935D0280914A020E94AF01E5
:1007300080914B028F3F11F00E94AF0180914C02DB
:100740000E94AF01C6E4D2E09E012654324080915F
:10075000550284FD0AC084E090E0219628173907ED
:100760003CF48E810E94AF01EFCF88E090E0F5CF9E
:100770008BE39DE00197F1F760E080914A020E94CF
:10078000CE0160E080914C020E94CE0180914B022C
:100790008F3F19F060E00E94CE018091550284FDE8
:1007A00039C063E086E492E00E94F802CBE4D6E42C
:1007B000CE010197F1F763E086E492E00E94F8022F
:1007C0002197F1F763E086E492E00E94F80283E566
:1007D00092E00197F1F762E086E492E00E94F8026D
:1007E0008091550280620E94780384E080935602D3
:1007F0008CE00E94780381E00E9478038BE39FE104
:100800000197F1F782E08093570286E0DF91CF9164
:100810000C94780380620E9478038BE496E401973D
:10082000F1F78091550280620E94780383E592E09F
:100830000197F1F78091550280620E947803D0CF32
:1008400090915902691710F06FEF690FE62FF0E0F1
:10085000EA5BFD4F9489890F80680C94780341E02E
:100860000E94250381E090E00895CF93DF93EC018F
:10087000FC01649141E086E492E00E942503FE01C0
:100880003196649141E086E492E0DF91CF910C943F
:100890002503CF9361E080E00E94200447E050E010
:1008A00064E172E086E492E00E94B102809130023D
:1008B000C3E08C9FC0011124845C9E4F0E943504CC
:1008C0006AE386E492E00E942F0480912F028C9FBD
:1008D000C0011124845C9E4F0E9435046AE386E4C3
:1008E00092E00E942F0480912E028C9FC00111245F
:1008F000845C9E4F0E943504809136026BE2811128
:1009000001C06DE286E492E0CF910C942F0461E087
:1009100080E00E94200440E150E06CE172E086E457
:1009200092E00E94B10210923502109234021092AD
:100930003A021092390208951F920F920FB60F9249
:1009400011242F933F938F939F93AF93BF938091E5
:100950003E0290913F02A0914002B091410230913D
:100960003D0223E0230F2D3758F50196A11DB11D3F
:1009700020933D0280933E0290933F02A093400259
:10098000B09341028091420290914302A0914402AF
:10099000B09145020196A11DB11D80934202909332
:1009A0004302A0934402B0934502BF91AF919F913F
:1009B0008F913F912F910F900FBE0F901F90189520
:1009C00026E8230F0296A11DB11DD2CF1F920F92D0
:1009D0000FB60F9211240BB60F92EF92FF920F9366
:1009E0001F932F933F934F935F936F937F938F93B7
:1009F0009F93AF93BF93CF93DF93EF93FF93809138
:100A000031028F5F809331028C3361F49091320216
:100A100080913302109231029F5F9C3309F475C0BC
:100A2000909332020091330210913202D091310240
:100A300080913602882361F1C0913002E0902F024C
:100A4000F0902E02C01308C0E11206C0FD1204C0CF
:100A500061E085E10E94CE018EE18F0D90E08C3344
:100A600018F082EE8F0D91E09E0D20E09C3310F087
:100A70009C5321E02C0F283108F02851201308C086
:100A8000911306C08D1304C060E085E10E94CE0181
:100A900060E083E00E942004C3E00C9FC0011124A9
:100AA000845C9E4F0E9435046AE386E492E00E94D3
:100AB0002F041C9FC0011124845C9E4F0E943504AA
:100AC0006AE386E492E00E942F04DC9FC0011124B7
:100AD000845C9E4F0E943504FF91EF91DF91CF918E
:100AE000BF91AF919F918F917F916F915F914F9146
:100AF0003F912F911F910F91FF90EF900F900BBEA0
:100B00000F900FBE0F901F901895109232028F5FBA
:100B1000883119F08093330285CF1092330282CF4F
:100B2000789484B5826084BD84B5816084BD85B5C8
:100B3000826085BD85B5816085BD80916E008160D4
:100B400080936E001092810080918100826080937A
:100B5000810080918100816080938100809180007C
:100B60008160809380008091B10084608093B100A7
:100B70008091B00081608093B0008091910082608C
:100B80008093910080919100816080939100809189
:100B900090008160809390008091A100826080939A
:100BA000A1008091A10081608093A1008091A000AC
:100BB00081608093A0008091210182608093210157
:100BC00080912101816080932101809120018160C9
:100BD0008093200180917A00846080937A008091D4
:100BE0007A00826080937A0080917A00816080939D
:100BF0007A0080917A00806880937A001092C10018
:100C0000F894109290008DE08093910082E08093A0
:100C1000710088E09DE390939900809398008FE0A5
:100C20008093070180EF8093080182E00E947E0399
:100C3000789485E10E94AF0160E085E10E94CE01D9
:100C40002224239440E0E42E40E0F42E11E053E00F
:100C5000C52ED12C44244394512C72E0672E712C64
:100C600084E4B82E93E4A92E22E4922E31E4832E5C
:100C7000C091010280910601C13009F0FBC0803FA4
:100C800009F483C062E370E080E090E00E947F029C
:100C900010920102C09300028EEF809308010000C1
:100CA0009091080180910601981320C08DEF8093E8
:100CB000080100009091080180910601981316C068
:100CC0008BEF80930801000090910801809106014C
:100CD00098130CC087EF80930801000090910801E1
:100CE00080910601981302C01092000280910002C8
:100CF000813009F047C0809106018E3E21F481E3E6
:100D000080933B023DC0809106018E3D11F482E349
:100D1000F7CF809106018E3B11F483E3F1CF8091F0
:100D200006018D3E11F484E3EBCF809106018D3DE9
:100D300011F485E3E5CF809106018D3B11F486E344
:100D4000DFCF809106018B3E11F487E3D9CF8091EC
:100D500006018B3D11F488E3D3CF809106018B3BD4
:100D600011F489E3CDCF80910601873D11F480E332
:100D7000C7CF809106018E3709F05AC080923B029E
:100D800010933C0280EF8093080180913C028823FD
:100D900009F4B1C061E085E10E94CE0110923C02ED
:100DA00000913B02C0913902D0913A0261E08C2F50
:100DB0000E942004033409F4AAC00CF067C0013477
:100DC00009F48BC0023409F49DC0809137029091E0
:100DD0003802892B09F47AC0C230D10519F0C53028
:100DE000D10551F46AE386E492E00E942F04219633
:100DF000D0933A02C0933902602F86E492E00E94B9
:100E00002F048091340290913502FC01EE5FFD4F7A
:100E100000830196909335028093340280913902C9
:100E200090913A02019690933A028093390259C008
:100E3000809106018D3719F490923B02A1CF8091E9
:100E400006018B3719F4A0923B029ACF80910601DC
:100E5000873719F4B0923B0293CF80910601873B0C
:100E600011F485E44DCF80910601873E09F088CFCB
:100E700086E446CF803F09F088CF68EC70E080E0E0
:100E800090E00E947F02109301027FCF053491F021
:100E90000CF444C0063409F098CF0E94870460E93E
:100EA00071E080E090E00E947F0210923802109280
:100EB000370217C0A0910202A83541F090910302B9
:100EC000983521F0409104024835A1F560E971E0C0
:100ED00080E090E00E947F0204C05092380240926D
:100EE000370264E670E080E090E00E947F0260E0FC
:100EF00085E10E94CE01E114F10409F4B9CE0E940B
:100F00000000AECE7092380260923702EACFD092E3
:100F10003802C09237020E944904E3CF8091370221
:100F2000909138020397B9F7809136028225809319
:100F30003602F1CF0A2E000CBB0BD0973AE03A9F55
:100F4000B0013B9F700D1124E92F092E000CFF0BFF
:100F5000F0976E0F7F1F683171050CF0B7CF042E2C
:100F6000000C550B4053510920910502349FF001AC
:100F7000359FF00D1124622F022E000C770B605369
:100F800071096E0F7F1F6C3371050CF09FCF60915C
:100F90000602062E000C770B605371098091070240
:100FA000369FE001379FD00D1124E82F082E000C4A
:100FB000FF0BF097EC0FFD1FFC970CF087CFE09133
:100FC0003402F091350237970CF080CFE091370270
:100FD000F0913802E230F10509F44EC0E430F10539
:100FE00009F447C0319709F05DC03AE08053C82F3B
:100FF000369FC00D1124C09331022053D22F349F4D
:10100000D00D1124D09332029053392E3A9F300CD8
:1010100011243092330260E083E00E94200403E058
:10102000309EC0011124845C9E4F0E9435046AE307
:1010300086E492E00E942F04D09FC0011124845CBA
:101040009E4F0E9435046AE386E492E00E942F04DA
:10105000C09FC0011124845C9E4F0E94350464E649
:1010600070E080E090E00E947F0261E085E10E94F4
:10107000CE010E94870419CF3AE08053369F800D3D
:10108000112480932E022053349F200D112420938D
:101090002F0290533A9F900D112490933002109399
:1010A0003602DDCF60E971E080E090E00E947F02CF
:1010B000E0CFE6E4F2E0138212828CE092E09183CA
:1010C000808385E2848384E2858383E2868382E26F
:1010D000878381E2808780E281878FE18287138620
:1010E000148615861686178681E00C947E03EE0F13
:1010F000FF1F881F8BBF0790F691E02D1994F8947D
:02110000FFCF1F
:101102000101585858585858000000002F04B102E5
:10111200DF02DE02416C61726D3A20002020202045
:0E11220020202020202020202020202000003F
:00000001FF
