:100000000C941A010C944B010C944B010C944B0171
:100010000C944B010C944B010C944B010C944B0130
:100020000C944B010C944B010C944B010C944B0120
:100030000C944B010C942F030C944B010C944B012A
:100040000C944B010C944B010C944B010C944B0100
:100050000C944B010C9492020C944B010C944802AA
:100060000C944B010C944B010C944B010C944B01E0
:100070000C944B010C944B010C944B010C944B01D0
:100080000C944B010C944B010C944B010C944B01C0
:100090000C944B010C944B010C944B010C944B01B0
:1000A0000C944B010C944B010C944B010C944B01A0
:1000B0000C944B010C944B010C944B010C944B0190
:1000C0000C944B010C944B010C944B010C944B0180
:1000D0000C944B010C944B010C944B010C944B0170
:1000E0000C944B010C94CB010C94AF010C94940133
:1000F0000C94CB040C94B7010C94CF010C947901AF
:100100000C94C1010C94B3010C947E010C94BD01BC
:100110000C949C010C949F010C94A9010C949001E7
:100120000C94C5010C94A5010C94980100002100C9
:10013000240027002A002D003000330001010000B8
:10014000040107010A0100002200250028002B00FD
:100150002E003100340002010000050108010B01EE
:1001600005050505070508080808020202020A0A33
:100170000808040404040101010101010101030351
:10018000030303030303040707070C0C0C0C0C0CFC
:100190000C0C0202020206060606060606060B0BF9
:1001A0000B0B0B0B0B0B010210202008081020403A
:1001B000102040800201020108040201010204082B
:1001C00010204080804020100804020180040201B9
:1001D0008040201008040201080402010102040802
:1001E00010204080010204081020408000000A0B0B
:1001F00002090C0D0E0807030401000000000000B6
:1002000000000000000000000000000000000000EE
:1002100000000000000000001211100000000000AB
:1002200000000000000000000000000000000000CE
:100230000000CB0411241FBECFEFD1E2DEBFCDBF43
:1002400000E00CBF12E0A0E0B2E0EEECF9E000E06C
:100250000BBF02C007900D92A231B107D9F722E07F
:10026000A2E1B2E001C01D92AF32B207E1F711E0A6
:10027000CAE1D1E000E006C021970109802FFE010C
:100280000E94DD04C931D10780E00807A9F70E9468
:1002900082030C94E5040C940000382FE1E1F2E0B5
:1002A0008491EBECF1E02491E5E8F1E0949199235D
:1002B00009F435C0882311F181508231F8F4E82F18
:1002C000F0E08827E959FE4F8F4F0C94DD04980128
:1002D0009C017901900194017E019F01A501A90172
:1002E000AF01B301B701BD01C1017E01C501CB0161
:1002F000CF01809180008F7780938000E92FF0E01C
:10030000EE0FFF1FEA5BFE4FA591B4918FB7F894F3
:10031000EC91311148C020952E232C938FBF089566
:10032000809180008F7DE8CF80918000877FE4CF2F
:1003300084B58F7784BDE2CF84B58F7DFBCF80916C
:10034000B0008F778093B000D9CF8091B0008F7DBF
:10035000F9CF809190008F7780939000CFCF8091DC
:1003600090008F7DF9CF80919000877FF5CF8091AD
:10037000A0008F778093A000C1CF8091A0008F7DD7
:10038000F9CF8091A000877FF5CF809120018F77F2
:1003900080932001B3CF809120018F7DF9CF809190
:1003A0002001877FF5CF2E2BB8CF3FB7F8948091EF
:1003B0002B0290912C02A0912D02B0912E0226B515
:1003C000A89B05C02F3F19F00196A11DB11D3FBF8D
:1003D000BA2FA92F982F8827BC01CD01620F711D5C
:1003E000811D911D42E0660F771F881F991F4A9556
:1003F000D1F708958F929F92AF92BF92CF92DF92E2
:10040000EF92FF920E94D5014B015C0180EAC82E59
:1004100086E8D82EEE24E394F12C0E94D5016819C9
:1004200079098A099B09683E734081059105A8F303
:1004300021E0C21AD108E108F10888EE880E83E0B5
:10044000981EA11CB11CC114D104E104F10429F7C8
:10045000FF90EF90DF90CF90BF90AF909F908F90E4
:100460000895E0E08A3018F08A50EF5FFBCFA62FA6
:10047000B0E0AD5EBD4FF0E0E95FFD4F90819C9331
:10048000E82FF0E0E95FFD4F808111968C9308958D
:100490001F920F920FB60F9211242F933F938F93B9
:1004A0009F93AF93BF938091270290912802A091D0
:1004B0002902B0912A023091260223E0230F2D3722
:1004C00058F50196A11DB11D2093260280932702A5
:1004D00090932802A0932902B0932A0280912B02C4
:1004E00090912C02A0912D02B0912E020196A11D97
:1004F000B11D80932B0290932C02A0932D02B093F8
:100500002E02BF91AF919F918F913F912F910F90AC
:100510000FBE0F901F90189526E8230F0296A11D7D
:10052000B11DD2CF1F920F920FB60F9211240BB6AE
:100530000F922F933F934F935F936F937F938F937C
:100540009F93AF93BF93EF93FF93809112028F5FBE
:10055000863009F476C080931202E0911202F0E036
:10056000EF5FFD4F80818BB9909100028091120264
:10057000E82FF0E0992309F467C0ED5EFD4F90810C
:100580008D7F813009F4905892B980911F028823A1
:10059000F1F0909125028091220298130FC0909162
:1005A000240280912102981309C090912302809126
:1005B0002002981303C081E00E944D018091000247
:1005C000811105C08BB1803411F488E882B9809123
:1005D00020022EE1280F2C3308F43FC022EE280F12
:1005E00081E090912102890F90E08C3310F08C53C0
:1005F00091E030912202930F983108F09851309198
:10060000250293130BC090912402891307C0809197
:100610002302821303C080E00E944D01FF91EF91FD
:10062000BF91AF919F918F917F916F915F914F910A
:100630003F912F910F900BBE0F900FBE0F901F9008
:1006400018951092120289CFE75EFD4F90818D7F41
:10065000813009F099CF9F7797CF80E0C2CF1F926A
:100660000F920FB60F9211240BB60F922F933F9358
:100670004F935F936F937F938F939F93AF93BF93AA
:10068000EF93FF93809123028F5F8C33D1F080939F
:10069000230264E0809123020E943102FF91EF91D6
:1006A000BF91AF919F918F917F916F915F914F918A
:1006B0003F912F910F900BBE0F900FBE0F901F9088
:1006C000189510922302809124028F5F8C3341F0A1
:1006D0008093240262E0809124020E943102D9CFEB
:1006E00010922402809125028F5F883141F080931F
:1006F000250260E0809125020E943102EBCF10922A
:100700002502F7CF789484B5826084BD84B581607A
:1007100084BD85B5826085BD85B5816085BD8091CC
:100720006E00816080936E00109281008091810044
:10073000826080938100809181008160809381003C
:10074000809180008160809380008091B1008460FE
:100750008093B1008091B00081608093B00080915F
:1007600091008260809391008091910081608093DC
:100770009100809190008160809390008091A10011
:1007800082608093A1008091A10081608093A1008C
:100790008091A00081608093A000809121018260FF
:1007A00080932101809121018160809321018091BA
:1007B000200181608093200180917A008460809381
:1007C0007A0080917A00826080937A0080917A002A
:1007D000816080937A0080917A00806880937A00AB
:1007E0001092C100F8948FEF8AB98BB981B982B9A0
:1007F00014B885B916BC89E187BD82E084BD85E067
:1008000085BD80916E00826080936E0010927000B2
:100810008091B60080628093B6001092B20082E4AC
:100820008093B00087E08093B10080E28093B300B2
:100830008091B6008F71E1F787E087BB82E08093FB
:1008400070007894EBECF1E02491E5E8F1E084911C
:10085000882399F090E0880F991FFC01E45DFE4F1A
:10086000A591B491FC01EA5BFE4F859194918FB7FD
:10087000F894EC91E22BEC938FBF80E00E944D0145
:1008800011E0C0E0D0E0809100028823E9F11899DE
:100890000EC0809125028F5F883181F180932502FF
:1008A00060E0809125020E9431020E94FA011999AC
:1008B0000EC0809124028F5F8C3319F18093240243
:1008C00062E0809124020E9431020E94FA011A998A
:1008D00007C0809100028127809300020E94FA01E4
:1008E0001B9907C080911F02812780931F020E94DD
:1008F000FA01209741F20E940000C5CF1092250214
:10090000CFCF10922402DCCF83B1A82FA17080FD3D
:100910001FC0809122028F5F883149F080932202AC
:10092000E0912202EA3030F0EA50AF5FFBCF109244
:100930002202F6CFB0E0A95FBD4F8C9180931902DF
:10094000F0E0E95FFD4F808180931A020E94FA0176
:1009500083B1A82FA27081FDBACF809121028F5F51
:100960008C3349F080932102E0912102EA3030F08B
:10097000EA50AF5FFBCF10922102F6CFB0E0A95F43
:10098000BD4F8C9180931B02F0E0E95FFD4F8081A9
:1009900080931C029ACFE3E1F2E080EC80838183B4
:1009A0008283838384838583E9E1F2E0808381838A
:1009B00082838383848385830895EE0FFF1F881FBE
:0E09C0008BBF0790F691E02D1994F894FFCFAD
:1009CE0001020408102040C0F9A4B0999282F88068
:0209DE00900087
:00000001FF
