:100000000C9483000C94B4000C94B4000C94B400D1
:100010000C94B4000C94B4000C94B4000C94B40090
:100020000C94B4000C94B4000C94B4000C94B40080
:100030000C94B4000C94B4000C94B4000C94B40070
:100040000C94B4000C94B4000C94B4000C94B40060
:100050000C94B4000C94B4000C94B4000C9477028B
:100060000C94B4000C944B030C9421030C94B40036
:100070000C94B4000C94B4000C94B4000C94B40030
:100080000C94B4000C94B4000C94B4000C94B40020
:100090000C94EB020C94C1020C9481030C94B400F8
:1000A0000C94B4000C94B4000C94B4000C94B40000
:1000B0000C94B4000C94B4000C94B4000C94B400F0
:1000C0000C94B4000C94B4000C94B4000C94B400E0
:1000D0000C94B4000C94B4000C94B4000C94B400D0
:1000E0000C94B4000C9435010C948C030C942202F3
:1000F0000C9462010C94D5010C9485010C9493012D
:100100000C9471018C0311241FBECFEFD1E2DEBF2E
:10011000CDBF00E00CBF12E0A0E0B2E0E4EAF9E0FD
:1001200000E00BBF02C007900D92A431B107D9F7D0
:1001300023E0A4E1B2E001C01D92A935B207E1F7C6
:1001400010E0C3E8D0E000E006C021970109802F4D
:10015000FE010E94C804C238D10780E00807A9F751
:100160000E94DF030C94D0040C940000FC01A089D1
:10017000B18982E08C93A485B58581E08C93A685B6
:10018000B78580EA8C93108EA489B58986E08C931C
:10019000A289B3898C9180618C93A289B3898C9157
:1001A00088608C93A289B3898C9180688C93028833
:1001B000F389E02D80818F7D808308953FB7F89487
:1001C00080911B0290911C02A0911D02B0911E0211
:1001D00026B5A89B05C02F3F19F00196A11DB11DA2
:1001E0003FBFBA2FA92F982F8827BC01CD01620FDE
:1001F000711D811D911D42E0660F771F881F991F99
:100200004A95D1F708958F929F92AF92BF92CF9265
:10021000DF92EF92FF924B015C010E94DE006B01C6
:100220007C010E94DE006C197D098E099F09683EE1
:10023000734081059105A8F321E0821A9108A10875
:10024000B10888EEC80E83E0D81EE11CF11C8114B1
:100250009104A104B10429F7FF90EF90DF90CF90B3
:10026000BF90AF909F908F900895AF92BF92CF9222
:10027000DF92EF92FF920F931F93CF93DF936C0166
:100280007B018B01040F151FEB015E01AE18BF0847
:10029000C017D10759F06991D601ED91FC910190F9
:1002A000F081E02DC6011995892B79F7C501DF9101
:1002B000CF911F910F91FF90EF90DF90CF90BF9063
:1002C000AF900895FC01538D448D252F30E0842F8D
:1002D00090E0821B930B541710F0CF96089501976E
:1002E0000895FC01918D828D981761F0A28DAE0F5B
:1002F000BF2FB11D5D968C91928D9F5F9F73928FE2
:1003000090E008958FEF9FEF0895FC01918D828D0D
:10031000981731F0828DE80FF11D858D90E00895DA
:100320008FEF9FEF0895FC01918D228D892F90E032
:10033000805C9F4F821B91098F73992708958FE1ED
:1003400092E00E94930121E0892B09F420E0822FA2
:1003500008958CEB92E00E94930121E0892B09F42F
:1003600020E0822F0895FC01A48DA80FB92FB11DA4
:10037000A35ABF4F2C91848D90E001968F739927DB
:10038000848FA689B7892C93A089B1898C918370B9
:1003900080648C93938D848D981306C00288F389B2
:1003A000E02D80818F7D80830895EF92FF920F93DF
:1003B0001F93CF93DF93EC0181E0888F9B8D8C8D11
:1003C00098131AC0E889F989808185FF15C09FB705
:1003D000F894EE89FF896083E889F98980818370C8
:1003E000806480839FBF81E090E0DF91CF911F9177
:1003F0000F91FF90EF900895F62E0B8D10E00F5F98
:100400001F4F0F731127E02E8C8D8E110CC00FB66D
:1004100007FCFACFE889F989808185FFF5CFCE0105
:100420000E94B301F1CFEB8DEC0FFD2FF11DE35ACC
:10043000FF4FF0829FB7F8940B8FEA89FB89808188
:100440008062CFCFCF93DF93EC01888D8823B9F002
:10045000AA89BB89E889F9898C9185FD03C08081CF
:1004600086FD0DC00FB607FCF7CF8C9185FFF2CF4C
:10047000808185FFEDCFCE010E94B301E9CFDF91EE
:10048000CF91089580E090E0892B29F00E94A90186
:1004900081110E94000080E090E0892B29F00E94E9
:1004A0009F0181110E94000080E090E0892B49F0BB
:1004B00080E090E0892B29F00E94000081110E94C9
:1004C000000080E090E0892B49F080E090E0892BEB
:1004D00029F00E94000081110C94000008958BB156
:1004E000599A61E070E080E090E00C9403011F9263
:1004F0000F920FB60F9211242F933F938F939F93D8
:10050000AF93BF938091170290911802A0911902A6
:10051000B0911A023091160223E0230F2D3758F5BF
:100520000196A11DB11D209316028093170290938E
:100530001802A0931902B0931A0280911B029091A5
:100540001C02A0911D02B0911E020196A11DB11DB9
:1005500080931B0290931C02A0931D02B0931E0275
:10056000BF91AF919F918F913F912F910F900FBEAF
:100570000F901F90189526E8230F0296A11DB11D1C
:10058000D2CF1F920F920FB60F9211240BB60F927B
:100590002F933F934F935F936F937F938F939F938B
:1005A000AF93BF93EF93FF938FE192E00E94B3016B
:1005B000FF91EF91BF91AF919F918F917F916F913B
:1005C0005F914F913F912F910F900BBE0F900FBEF7
:1005D0000F901F9018951F920F920FB60F92112433
:1005E0000BB60F922F938F939F93EF93FF93E0910E
:1005F0002F02F09130028081E0913502F0913602B5
:1006000082FD1DC09081809138028F5F8F73209191
:100610003902821741F0E0913802F0E0E15EFD4FCF
:10062000958F80933802FF91EF919F918F912F9139
:100630000F900BBE0F900FBE0F901F9018958081EA
:10064000F2CF1F920F920FB60F9211240BB60F929A
:100650002F933F934F935F936F937F938F939F93CA
:10066000AF93BF93EF93FF938CEB92E00E94B301A3
:10067000FF91EF91BF91AF919F918F917F916F917A
:100680005F914F913F912F910F900BBE0F900FBE36
:100690000F901F9018951F920F920FB60F92112472
:1006A0000BB60F922F938F939F93EF93FF93E0914D
:1006B000CC02F091CD028081E091D202F091D30280
:1006C00082FD1DC090818091D5028F5F8F73209134
:1006D000D602821741F0E091D502F0E0E454FD4FDC
:1006E000958F8093D502FF91EF919F918F912F91DC
:1006F0000F900BBE0F900FBE0F901F90189580812A
:10070000F2CF1F920F920FB60F92112459980F90AB
:100710000FBE0F901F901895EFE1F2E01382128246
:1007200048EE53E060E070E044835583668377834E
:1007300085E092E0918380832DEC30E0358724873B
:100740002CEC30E03787268728EC30E0318B208B8B
:1007500029EC30E0338B228B2AEC30E0358B248B74
:100760002EEC30E0378B268B118E128E138E148E6A
:10077000ECEBF2E013821282448355836683778325
:100780009183808385EC90E09587848784EC90E06A
:100790009787868780EC90E0918B808B81EC90E04E
:1007A000938B828B82EC90E0958B848B86EC90E02F
:1007B000978B868B118E128E138E148E08957894DB
:1007C00084B5826084BD84B5816084BD85B5826056
:1007D00085BD85B5816085BD80916E008160809307
:1007E0006E00109281008091810082608093810070
:1007F0008091810081608093810080918000816080
:10080000809380008091B10084608093B1008091DA
:10081000B00081608093B0008091910082608093ED
:10082000910080919100816080939100809190006F
:100830008160809390008091A10082608093A100EC
:100840008091A10081608093A1008091A0008160CF
:100850008093A0008091210182608093210180918A
:10086000210181608093210180912001816080932A
:10087000200180917A00846080937A0080917A00D0
:10088000826080937A0080917A00816080937A0000
:1008900080917A00806880937A001092C10068EE9F
:1008A00073E080E090E00E940301519A59988CEB2C
:1008B00092E00E94B6008FE192E00E94B60050E004
:1008C00040E063E172E08FE192E00E9435018091A7
:1008D000C90084648093C900D1E08CEB92E00E944F
:1008E0009301892BC9F08CEB92E00E947101C82F13
:1008F00080910002882311F10E946F028091C9004B
:1009000081608093C9006C2F8FE192E00E94D50135
:1009100010920002D09315028FE192E00E949301A1
:10092000892B49F08FE192E00E947101682F8CEBD6
:1009300092E00E94D5010E944202CFCF8091150221
:100940008823B9F0C0931402109215020E946F021E
:100950008091C9008E7F8093C9006C2F8FE192E057
:100960000E94D50180911402813BB1F6D093000220
:10097000D3CFD09300020E946F028091C9008E7F76
:100980008093C9006C2F8FE192E00E94D501C4CF03
:10099000EE0FFF1F881F8BBF0790F691E02D199473
:0409A000F894FFCFF9
:1009A4000100000000D501350162012202930171AA
:0409B40001850100B8
:00000001FF
