:020000040000FA
:100000000C9435000C945D000C945D000C945D0024
:100010000C945D000C945D000C945D000C945D00EC
:100020000C945D000C945D000C945D000C945D00DC
:100030000C945D000C945D000C945D000C945D00CC
:100040000C94C3010C945D000C9433020C940D02CB
:100050000C9465020C945D000C945D000C945D00A2
:100060000C945D000C945D00EA0311241FBECFEFD9
:10007000D8E0DEBFCDBF21E0A0E3B1E001C01D921A
:10008000AC3DB207E1F711E0A0E0B1E0EEEAFCE040
:1000900002C005900D92A033B107D9F710E0C5E377
:1000A000D0E004C02197FE010E944E04C433D10762
:1000B000C9F70E9470020C9455060C9400003FB7DB
:1000C000F8948091D4019091D501A091D601B0917E
:1000D000D70126B5A89B05C02F3F19F00196A11D99
:1000E000B11D3FBFBA2FA92F982F8827BC01CD0182
:1000F000620F711D811D911D42E0660F771F881FE1
:10010000991F4A95D1F708958F929F92AF92BF920F
:10011000CF92DF92EF92FF924B015C010E945F0051
:100120006B017C010E945F006C197D098E099F099B
:10013000683E734081059105A8F321E0821A910879
:10014000A108B10888EEC80E83E0D81EE11CF11C9E
:1001500081149104A104B10429F7FF90EF90DF907E
:10016000CF90BF90AF909F908F900895AF92BF9225
:10017000CF92DF92EF92FF920F931F93CF93DF9373
:100180006C017B018B01040F151FEB015E01AE18A2
:10019000BF08C017D10759F06991D601ED91FC91C4
:1001A0000190F081E02DC6010995892B79F7C501F1
:1001B000DF91CF911F910F91FF90EF90DF90CF9043
:1001C000BF90AF900895FC01538D448D252F30E0F2
:1001D000842F90E0821B930B541710F0CF96089554
:1001E00001970895FC01918D828D981761F0A28D81
:1001F000AE0FBF2FB11D5D968C91928D9F5F9F7347
:10020000928F90E008958FEF9FEF0895FC01918DFC
:10021000828D981731F0828DE80FF11D858D90E069
:1002200008958FEF9FEF0895FC01918D228D892F06
:1002300090E0805C9F4F821B91098F7399270895EE
:1002400082E391E00E94140121E0892B09F420E06F
:10025000822F089580E090E0892B29F00E942001F0
:1002600081110C9400000895FC01A48DA80FB92FF2
:10027000B11DA35ABF4F2C91848D90E001968F73CE
:100280009927848FA689B7892C93A089B1898C91ED
:10029000837080648C93938D848D981306C002883C
:1002A000F389E02D80818F7D80830895EF92FF9206
:1002B0000F931F93CF93DF93EC0181E0888F9B8D89
:1002C0008C8D98131AC0E889F989808185FF15C043
:1002D0009FB7F894EE89FF896083E889F989808166
:1002E0008370806480839FBF81E090E0DF91CF9135
:1002F0001F910F91FF90EF900895F62E0B8D10E057
:100300000F5F1F4F0F731127E02E8C8D8E110CC0C5
:100310000FB607FCFACFE889F989808185FFF5CF10
:10032000CE010E943401F1CFEB8DEC0FFD2FF11DBA
:10033000E35AFF4FF0829FB7F8940B8FEA89FB894D
:1003400080818062CFCFCF93DF93EC01888D8823AB
:10035000B9F0AA89BB89E889F9898C9185FD03C028
:10036000808186FD0DC00FB607FCF7CF8C9185FF0D
:10037000F2CF808185FFEDCFCE010E943401E9CF1D
:10038000DF91CF9108951F920F920FB60F92112413
:100390002F933F938F939F93AF93BF938091D001FF
:1003A0009091D101A091D201B091D3013091CF01B0
:1003B00023E0230F2D3758F50196A11DB11D209381
:1003C000CF018093D0019093D101A093D201B0933B
:1003D000D3018091D4019091D501A091D601B09123
:1003E000D7010196A11DB11D8093D4019093D50131
:1003F000A093D601B093D701BF91AF919F918F91F8
:100400003F912F910F900FBE0F901F90189526E8E7
:10041000230F0296A11DB11DD2CF1F920F920FB6CE
:100420000F9211242F933F934F935F936F937F937A
:100430008F939F93AF93BF93EF93FF9382E391E0EA
:100440000E943401FF91EF91BF91AF919F918F91E5
:100450007F916F915F914F913F912F910F900FBEC0
:100460000F901F9018951F920F920FB60F921124A4
:100470002F938F939F93EF93FF93E0914201F0911D
:1004800043018081E0914801F091490182FD1BC048
:10049000908180914B018F5F8F7320914C01821767
:1004A00041F0E0914B01F0E0EE5CFE4F958F8093C0
:1004B0004B01FF91EF919F918F912F910F900FBE64
:1004C0000F901F9018958081F4CF1F920F920FB656
:1004D0000F9211245A980F900FBE0F901F901895ED
:1004E000CF93DF93CDB7DEB7CA54D1090FB6F894D6
:1004F000DEBF0FBECDBF789484B5826084BD84B565
:10050000816084BD85B5826085BD85B5816085BD0E
:1005100080916E00816080936E00109281008091C6
:10052000810082608093810080918100816080934E
:100530008100809180008160809380008091B10073
:1005400084608093B1008091B00081608093B0009E
:1005500080917A00846080937A0080917A00826032
:1005600080937A0080917A00816080937A008091F4
:100570007A00806880937A001092C10068EE73E080
:1005800080E090E00E94840087E08AB988EF8BB910
:10059000E0914201F091430182E08083E0913E01CD
:1005A000F0913F0181E08083E0914001F0914101B1
:1005B00080EA808310924A01E0914601F091470160
:1005C00086E08083E0914401F09145018081806163
:1005D0008083E0914401F0914501808188608083AF
:1005E000E0914401F0914501808180688083E09131
:1005F0004401F091450180818F7D80838091C1000D
:1006000084648093C1008091C00081608093C000A9
:1006100061E070E080E090E00E94840036E4732E98
:100620004CE8642E24E0522E90E0C92E90E0D92EA2
:1006300082E391E00E941401892B09F49FC082E3B8
:1006400091E00E94F200873509F098C08091C000C7
:100650008E7F8093C0005A9A61E070E080E090E065
:100660000E94840067E170E090E080E00E947905DC
:100670007C01009709F08EC01BAAFE01F3968E0143
:100680000F5F1F4FCF014896D80121912D938E17F0
:100690009F07D9F7A0903001B09031014985598169
:1006A00090E080E0A816B90679F430E020E08130CF
:1006B000910509F080C02115310509F455252F5FFA
:1006C0003F4F2A31310599F701968530910551F751
:1006D00059834987FE017B969801285E3F4FCF01E1
:1006E000B801DB014D91BD01DC014D93CD016217D5
:1006F0007307B9F7AF01485E5F4F80E0319128E0A2
:10070000A82FA327082E000C990BBC01759567959F
:10071000862FA0FF02C0862D86273595215081F7B0
:10072000E417F50759F7282F082E000C330B398FE3
:100730008A8F4801BAE18B0E911CF80161918F01FB
:1007400082E391E00E94560180169106B1F7FFEF17
:10075000AF1ABF0A85E0A816B104B9F1B092310111
:10076000A0923001E114F10419F0C7010E94F004D5
:1007700068EC70E080E090E00E948400C114D10435
:1007800009F456CF0E942001882309F44DCF0E941E
:10079000000048CFDC011C9266E071E00E943F0639
:1007A00046E150E0B701CE01C3960E9446062A9664
:1007B0001FAE2A9762CF8430910509F080CF283090
:1007C000310509F07CCF47257ACF10923101109284
:1007D0003001C8CFE2E3F1E01382128288EE93E0A9
:1007E000A0E0B0E084839583A683B78382E291E0A2
:1007F0009183808385EC90E09587848784EC90E0FA
:100800009787868780EC90E0918B808B81EC90E0DD
:10081000938B828B82EC90E0958B848B86EC90E0BE
:10082000978B868B118E128E138E148E08952F92B5
:100830003F924F925F926F927F928F929F92AF9270
:10084000BF92CF92DF92EF92FF920F931F93CF93BD
:10085000DF93CDB7DEB7CA1BDB0B0FB6F894DEBF54
:100860000FBECDBF09942A88398848885F846E847A
:100870007D848C849B84AA84B984C884DF80EE80C4
:10088000FD800C811B81AA81B981CE0FD11D0FB6CD
:10089000F894DEBF0FBECDBFED010895EE0FFF1F30
:1008A0000590F491E02D09940F931F93CF93DF935C
:1008B0008230910510F482E090E0E091DA01F0914D
:1008C000DB0130E020E0B0E0A0E0309799F42115A2
:1008D000310509F44AC0281B390B24303105D8F5FD
:1008E0008A819B816115710589F1FB019383828364
:1008F000FE0111C0408151810281138148175907BF
:10090000E0F04817590799F4109761F012960C938C
:10091000129713961C933296CF01DF91CF911F91BE
:100920000F9108950093DA011093DB01F4CF2115A4
:10093000310551F04217530738F0A901DB019A0144
:10094000BD01DF01F801C1CFEF01F9CF9093DB01C9
:100950008093DA01CDCFFE01E20FF31F81939193D3
:100960002250310939832883D7CF2091D801309183
:10097000D901232B41F420910201309103013093DE
:10098000D9012093D8012091000130910101211556
:10099000310541F42DB73EB7409104015091050156
:1009A000241B350BE091D801F091D901E217F30730
:1009B000A0F42E1B3F0B2817390778F0AC014E5FCF
:1009C0005F4F2417350748F04E0F5F1F5093D90132
:1009D0004093D801819391939FCFF0E0E0E09CCFCA
:1009E000CF93DF930097E9F0FC01329713821282D4
:1009F000A091DA01B091DB01ED0130E020E0109729
:100A0000A1F420813181820F931F2091D801309170
:100A1000D9012817390709F061C0F093D901E09393
:100A2000D801DF91CF910895EA01CE17DF07E8F5ED
:100A30004A815B819E0141155105B1F7E901FB83B4
:100A4000EA8349915991C40FD51FEC17FD0761F452
:100A5000808191810296840F951FE9019983888393
:100A6000828193819B838A83F0E0E0E012968D91EE
:100A70009C9113970097B9F52D913C911197CD0159
:100A80000296820F931F2091D8013091D901281727
:100A9000390739F6309751F51092DB011092DA01DF
:100AA000B093D901A093D801BCCFD383C283408136
:100AB0005181840F951FC817D90761F44E5F5F4FAE
:100AC00088819981480F591F518340838A819B8176
:100AD000938382832115310509F0B0CFF093DB01B8
:100AE000E093DA019ECFFD01DC01C0CF13821282B8
:100AF000D7CFB0E0A0E0EFE7F5E00C9419048C014B
:100B0000009751F4CB010E9454048C01C801CDB769
:100B1000DEB7E0E10C943504FC01E60FF71F9C0101
:100B200022503109E217F30708F49DC0D901CD9195
:100B3000DC911197C617D70798F0C530D10530F36F
:100B4000CE0104978617970708F3C61BD70B229789
:100B5000C193D1936D937C93CF010E94F004D6CFC3
:100B60005B01AC1ABD0A4C018C0E9D1EA091DA01EE
:100B7000B091DB01512C412CF12CE12C109731F577
:100B80008091D8019091D9018815990509F05CC030
:100B90004616570608F058C0809100019091010157
:100BA000009741F48DB79EB7409104015091050123
:100BB000841B950BE817F90708F055C0F093D9018D
:100BC000E093D801F90171836083A0CF8D919C914E
:100BD000119712966C90129713967C901397A81504
:100BE000B90559F56C0142E0C40ED11CCA14DB04EE
:100BF00020F1AC014A195B09DA011296159780F0D1
:100C00006282738251834083D9016D937C93E11496
:100C1000F10471F0D7011396FC93EE93129776CFFF
:100C200022968C0F9D1FF90191838083F301EFCFF2
:100C3000F093DB01E093DA0169CF4816590608F416
:100C40002C017D01D3019ACFCB010E9454047C0179
:100C5000009749F0AE01B8010E943606C8010E9413
:100C6000F004870153CF10E000E050CFFB01DC011E
:100C700002C001900D9241505040D8F70895FB01F9
:100C8000DC0101900D920020E1F70895FB01DC01E9
:100C90004150504048F001900D920020C9F701C02A
:100CA0001D9241505040E0F70895F894FFCF0000A6
:100CB000DC018000596174736B6976204F6C656844
:100CC000204F6C65686F7679636800000000000053
:0E0CD0005601B600E300A3011401F200060174
:107E0000112484B714BE81FFF0D085E080938100F7
:107E100082E08093C00088E18093C10086E0809377
:107E2000C20080E18093C4008EE0C9D0259A86E02C
:107E300020E33CEF91E0309385002093840096BBD3
:107E4000B09BFECF1D9AA8958150A9F7CC24DD24C4
:107E500088248394B5E0AB2EA1E19A2EF3E0BF2EE7
:107E6000A2D0813461F49FD0082FAFD0023811F036
:107E7000013811F484E001C083E08DD089C08234E0
:107E800011F484E103C0853419F485E0A6D080C0E4
:107E9000853579F488D0E82EFF2485D0082F10E0AE
:107EA000102F00270E291F29000F111F8ED06801E7
:107EB0006FC0863521F484E090D080E0DECF843638
:107EC00009F040C070D06FD0082F6DD080E0C81688
:107ED00080E7D80618F4F601B7BEE895C0E0D1E017
:107EE00062D089930C17E1F7F0E0CF16F0E7DF06D8
:107EF00018F0F601B7BEE89568D007B600FCFDCFD4
:107F0000A601A0E0B1E02C9130E011968C91119780
:107F100090E0982F8827822B932B1296FA010C0160
:107F200087BEE89511244E5F5F4FF1E0A038BF0790
:107F300051F7F601A7BEE89507B600FCFDCF97BE46
:107F4000E89526C08437B1F42ED02DD0F82E2BD052
:107F50003CD0F601EF2C8F010F5F1F4F84911BD097
:107F6000EA94F801C1F70894C11CD11CFA94CF0C13
:107F7000D11C0EC0853739F428D08EE10CD085E9AC
:107F80000AD08FE07ACF813511F488E018D01DD067
:107F900080E101D065CF982F8091C00085FFFCCF94
:107FA0009093C60008958091C00087FFFCCF809118
:107FB000C00084FD01C0A8958091C6000895E0E648
:107FC000F0E098E1908380830895EDDF803219F02E
:107FD00088E0F5DFFFCF84E1DECF1F93182FE3DFCA
:107FE0001150E9F7F2DF1F91089580E0E8DFEE27F6
:047FF000FF270994CA
:027FFE00040479
:00000001FF
