:100000000C9435000C945D000C945D000C945D0024
:100010000C945D000C945D000C945D000C945D00EC
:100020000C945D000C945D000C945D000C945D00DC
:100030000C945D000C945D000C945D000C945D00CC
:100040000C94C3010C945D000C9433020C940D02CB
:100050000C9465020C945D000C945D000C945D00A2
:100060000C945D000C945D00E90311241FBECFEFDA
:10007000D8E0DEBFCDBF21E0A4E2B1E001C01D9217
:10008000A03DB207E1F711E0A0E0B1E0ECEAFCE04E
:1000900002C005900D92A432B107D9F710E0C5E374
:1000A000D0E004C02197FE010E944D04C433D10763
:1000B000C9F70E9470020C9454060C9400003FB7DC
:1000C000F8948091C8019091C901A091CA01B091A2
:1000D000CB0126B5A89B05C02F3F19F00196A11DA5
:1000E000B11D3FBFBA2FA92F982F8827BC01CD0182
:1000F000620F711D811D911D42E0660F771F881FE1
:10010000991F4A95D1F708958F929F92AF92BF920F
:10011000CF92DF92EF92FF924B015C010E945F0051
:100120006B017C010E945F006C197D098E099F099B
:10013000683E734081059105A8F321E0821A910879
:10014000A108B10888EEC80E83E0D81EE11CF11C9E
:1001500081149104A104B10429F7FF90EF90DF907E
:10016000CF90BF90AF909F908F900895AF92BF9225
:10017000CF92DF92EF92FF920F931F93CF93DF9373
:100180006C017B018B01040F151FEB015E01AE18A2
:10019000BF08C017D10759F06991D601ED91FC91C4
:1001A0000190F081E02DC6010995892B79F7C501F1
:1001B000DF91CF911F910F91FF90EF90DF90CF9043
:1001C000BF90AF900895FC01538D448D252F30E0F2
:1001D000842F90E0821B930B541710F0CF96089554
:1001E00001970895FC01918D828D981761F0A28D81
:1001F000AE0FBF2FB11D5D968C91928D9F5F9F7347
:10020000928F90E008958FEF9FEF0895FC01918DFC
:10021000828D981731F0828DE80FF11D858D90E069
:1002200008958FEF9FEF0895FC01918D228D892F06
:1002300090E0805C9F4F821B91098F7399270895EE
:1002400086E291E00E94140121E0892B09F420E06C
:10025000822F089580E090E0892B29F00E942001F0
:1002600081110C9400000895FC01A48DA80FB92FF2
:10027000B11DA35ABF4F2C91848D90E001968F73CE
:100280009927848FA689B7892C93A089B1898C91ED
:10029000837080648C93938D848D981306C002883C
:1002A000F389E02D80818F7D80830895EF92FF9206
:1002B0000F931F93CF93DF93EC0181E0888F9B8D89
:1002C0008C8D98131AC0E889F989808185FF15C043
:1002D0009FB7F894EE89FF896083E889F989808166
:1002E0008370806480839FBF81E090E0DF91CF9135
:1002F0001F910F91FF90EF900895F62E0B8D10E057
:100300000F5F1F4F0F731127E02E8C8D8E110CC0C5
:100310000FB607FCFACFE889F989808185FFF5CF10
:10032000CE010E943401F1CFEB8DEC0FFD2FF11DBA
:10033000E35AFF4FF0829FB7F8940B8FEA89FB894D
:1003400080818062CFCFCF93DF93EC01888D8823AB
:10035000B9F0AA89BB89E889F9898C9185FD03C028
:10036000808186FD0DC00FB607FCF7CF8C9185FF0D
:10037000F2CF808185FFEDCFCE010E943401E9CF1D
:10038000DF91CF9108951F920F920FB60F92112413
:100390002F933F938F939F93AF93BF938091C4010B
:1003A0009091C501A091C601B091C7013091C301E0
:1003B00023E0230F2D3758F50196A11DB11D209381
:1003C000C3018093C4019093C501A093C601B0936B
:1003D000C7018091C8019091C901A091CA01B09153
:1003E000CB010196A11DB11D8093C8019093C90155
:1003F000A093CA01B093CB01BF91AF919F918F9110
:100400003F912F910F900FBE0F901F90189526E8E7
:10041000230F0296A11DB11DD2CF1F920F920FB6CE
:100420000F9211242F933F934F935F936F937F937A
:100430008F939F93AF93BF93EF93FF9386E291E0E7
:100440000E943401FF91EF91BF91AF919F918F91E5
:100450007F916F915F914F913F912F910F900FBEC0
:100460000F901F9018951F920F920FB60F921124A4
:100470002F938F939F93EF93FF93E0913601F09129
:1004800037018081E0913C01F0913D0182FD1BC06C
:10049000908180913F018F5F8F732091400182177F
:1004A00041F0E0913F01F0E0EA5DFE4F958F8093CF
:1004B0003F01FF91EF919F918F912F910F900FBE70
:1004C0000F901F9018958081F4CF1F920F920FB656
:1004D0000F9211245A980F900FBE0F901F901895ED
:1004E000CF93DF93CDB7DEB7A6970FB6F894DEBFF4
:1004F0000FBECDBF789484B5826084BD84B5816021
:1005000084BD85B5826085BD85B5816085BD8091DE
:100510006E00816080936E00109281008091810056
:10052000826080938100809181008160809381004E
:10053000809180008160809380008091B100846010
:100540008093B1008091B00081608093B000809171
:100550007A00846080937A0080917A008260809330
:100560007A0080917A00816080937A0080917A008D
:10057000806880937A001092C10068EE73E080E09A
:1005800090E00E94840087E08AB988EF8BB9E091FF
:100590003601F091370182E08083E0913201F091E1
:1005A000330181E08083E0913401F091350180EAEC
:1005B000808310923E01E0913A01F0913B0186E088
:1005C0008083E0913801F0913901808180618083DE
:1005D000E0913801F0913901808188608083E09159
:1005E0003801F0913901808180688083E091380181
:1005F000F091390180818F7D80838091C100846476
:100600008093C1008091C00081608093C00061E050
:1006100070E080E090E00E9484003E0187E2680E76
:10062000711C38E1532E4CE8442E20E2322E90E02B
:10063000A92E90E0B92E86E291E00E941401892B48
:1006400009F49DC086E291E00E94F2008C3409F02A
:1006500096C08091C0008E7F8093C0005A9A61E05E
:1006600070E080E090E00E9484006BE070E090E039
:1006700080E00E9478057C01009709F08CC01B8EF9
:10068000FE017B968E010F5F1F4FD80181918D93E4
:100690006E167F06D9F7C0902401D09025014C81B9
:1006A0005A8590E080E0C816D90679F430E020E061
:1006B0008230910509F07EC02930310509F45325B7
:1006C0002F5F3F4F2E30310599F701968530910508
:1006D00051F75A874C83FE013F969801245F3F4FA4
:1006E000CF01B801DB014D91BD01DC014D93CD017E
:1006F00062177307B9F7AF01445F5F4F80E0319134
:1007000028E0A82FA327082E000C990BBC01759593
:100710006795862FA0FF02C0842D8627359521502E
:1007200081F7E417F50759F7282F082E000C330B33
:100730003D878E874801BEE08B0E911CF8016191C8
:100740008F0186E291E00E94560180169106B1F772
:10075000FFEFCF1ADF0A85E0C816D104A9F1D092C5
:100760002501C0922401E114F10419F0C7010E948F
:10077000EF0468EC70E080E090E00E948400A11437
:10078000B10409F458CF0E942001882309F44FCF07
:100790000E9400004ACFDC011C9266E071E00E94DA
:1007A0003E064AE050E0B701CE014B960E94450656
:1007B0001DA266CF8330910509F082CF2330310529
:1007C00009F07ECF45257CCF10922501109224019F
:1007D000CACFE6E2F1E01382128288EE93E0A0E055
:1007E000B0E084839583A683B78386E191E091830B
:1007F000808385EC90E09587848784EC90E09787F0
:10080000868780EC90E0918B808B81EC90E0938BDD
:10081000828B82EC90E0958B848B86EC90E0978BBA
:10082000868B118E128E138E148E08952F923F9206
:100830004F925F926F927F928F929F92AF92BF92F0
:10084000CF92DF92EF92FF920F931F93CF93DF939C
:10085000CDB7DEB7CA1BDB0B0FB6F894DEBF0FBEF9
:10086000CDBF09942A88398848885F846E847D8446
:100870008C849B84AA84B984C884DF80EE80FD8048
:100880000C811B81AA81B981CE0FD11D0FB6F894BE
:10089000DEBF0FBECDBFED010895EE0FFF1F059027
:1008A000F491E02D09940F931F93CF93DF9382303F
:1008B000910510F482E090E0E091CE01F091CF013B
:1008C00030E020E0B0E0A0E0309799F42115310548
:1008D00009F44AC0281B390B24303105D8F58A8128
:1008E0009B816115710589F1FB0193838283FE0170
:1008F00011C0408151810281138148175907E0F0EE
:100900004817590799F4109761F012960C931297B3
:1009100013961C933296CF01DF91CF911F910F91C7
:1009200008950093CE011093CF01F4CF2115310526
:1009300051F04217530738F0A901DB019A01BD01BC
:10094000DF01F801C1CFEF01F9CF9093CF01809380
:10095000CE01CDCFFE01E20FF31F81939193225080
:10096000310939832883D7CF2091CC013091CD0133
:10097000232B41F420910201309103013093CD01EA
:100980002093CC0120910001309101012115310506
:1009900041F42DB73EB74091040150910501241B4D
:1009A000350BE091CC01F091CD01E217F307A0F4F3
:1009B0002E1B3F0B2817390778F0AC014E5F5F4FB5
:1009C0002417350748F04E0F5F1F5093CD01409319
:1009D000CC01819391939FCFF0E0E0E09CCFCF9347
:1009E000DF930097E9F0FC01329713821282A09105
:1009F000CE01B091CF01ED0130E020E01097A1F4DD
:100A000020813181820F931F2091CC013091CD0143
:100A10002817390709F061C0F093CD01E093CC01AC
:100A2000DF91CF910895EA01CE17DF07E8F54A81FB
:100A30005B819E0141155105B1F7E901FB83EA8312
:100A400049915991C40FD51FEC17FD0761F48081BE
:100A500091810296840F951FE90199838883828191
:100A600093819B838A83F0E0E0E012968D919C91C4
:100A700013970097B9F52D913C911197CD010296EE
:100A8000820F931F2091CC013091CD012817390797
:100A900039F6309751F51092CF011092CE01B093F4
:100AA000CD01A093CC01BCCFD383C28340815181BF
:100AB000840F951FC817D90761F44E5F5F4F888177
:100AC0009981480F591F518340838A819B81938369
:100AD00082832115310509F0B0CFF093CF01E09367
:100AE000CE019ECFFD01DC01C0CF13821282D7CF91
:100AF000B0E0A0E0EEE7F5E00C9418048C0100975C
:100B000051F4CB010E9453048C01C801CDB7DEB76C
:100B1000E0E10C943404FC01E60FF71F9C01225025
:100B20003109E217F30708F49DC0D901CD91DC919A
:100B30001197C617D70798F0C530D10530F3CE010D
:100B400004978617970708F3C61BD70B2297C19304
:100B5000D1936D937C93CF010E94EF04D6CF5B01BC
:100B6000AC1ABD0A4C018C0E9D1EA091CE01B09115
:100B7000CF01512C412CF12CE12C109731F58091B3
:100B8000CC019091CD018815990509F05CC04616FD
:100B9000570608F058C0809100019091010100971C
:100BA00041F48DB79EB74091040150910501841B1B
:100BB000950BE817F90708F055C0F093CD01E093C5
:100BC000CC01F90171836083A0CF8D919C91119725
:100BD00012966C90129713967C901397A815B905EE
:100BE00059F56C0142E0C40ED11CCA14DB0420F19B
:100BF000AC014A195B09DA011296159780F06282FE
:100C0000738251834083D9016D937C93E114F10485
:100C100071F0D7011396FC93EE93129776CF22963C
:100C20008C0F9D1FF90191838083F301EFCFF09327
:100C3000CF01E093CE0169CF4816590608F42C0184
:100C40007D01D3019ACFCB010E9453047C01009710
:100C500049F0AE01B8010E943506C8010E94EF04B8
:100C6000870153CF10E000E050CFFB01DC0102C050
:100C700001900D9241505040D8F70895FB01DC01DE
:100C800001900D920020E1F70895FB01DC01415035
:100C9000504048F001900D920020C9F701C01D920C
:0C0CA00041505040E0F70895F894FFCF59
:100CAC000000D001800031312E30392E32303033FB
:100CBC000000000000005601B600E300A30114017F
:040CCC00F20006012B
:00000001FF
