:100000000C9424010C9445010C9445010C94450179
:100010000C9445010C9445010C9445010C94450148
:100020000C9445010C9445010C9445010C94450138
:100030000C9445010C9445010C9445010C94450128
:100040000C9445010C9445010C9445010C94450118
:100050000C9445010C9445010C9445010C946C01E1
:100060000C9445010C9445010C9445010C944501F8
:100070000C9445010C9445010C9445010C944501E8
:100080000C9445010C9445010C9445010C944501D8
:100090000C9445010C9445010C9445010C944501C8
:1000A0000C9445010C9445010C9445010C944501B8
:1000B0000C9445010C9445010C9445010C944501A8
:1000C0000C9445010C9445010C9445010C94450198
:1000D0000C9445010C9445010C9445010C94450188
:1000E0000C9445010C94AC020C94CC020C94C40208
:1000F0000C94F1020C94D9020C94F5020C94EB02CE
:100100000C94FF020C94DD020C94E7020C94C802DC
:100110000C94B1020C9403030C94F9020C94D302D6
:100120000C94E3020C94D002000022002500280069
:100130002B002E00310034000201000005010801EF
:100140000B0100002100240027002A002D003000B0
:10015000330001010000040107010A010000200032
:100160002300260029002C002F003200000100008F
:10017000030106010901050505050705080808082A
:10018000020202020A0A080804040404010101012F
:10019000010101010303030303030303040707072A
:1001A0000C0C0C0C0C0C0C0C0202020206060606CF
:1001B000060606060B0B0B0B0B0B0B0B010210209C
:1001C000200808102040102040800201020108048D
:1001D0000201010204081020408080402010080421
:1001E000020180040201804020100804020108047A
:1001F00002010102040810204080010204081020BE
:10020000408000000A0B02090C0D0E0807030401D0
:1002100000000000000000000000000000000000DE
:1002200000000000000000000000000000001211AB
:1002300010000000000000000000000000000000AE
:10024000000000000000000011241FBECFEFD1E22B
:10025000DEBFCDBF00E00CBF12E0A0E0B2E0E2E202
:10026000F6E000E00BBF02C007900D92A031B1078D
:10027000D9F722E0A0E1B2E001C01D92A931B20796
:10028000E1F70E94B6010C940F030C9400003FB7F5
:10029000F8948091150290911602A0911702B091E6
:1002A000180226B5A89B05C02F3F19F00196A11D85
:1002B000B11D3FBFBA2FA92F982F8827BC01CD01B0
:1002C000620F711D811D911D42E0660F771F881F0F
:1002D000991F4A95D1F708951F920F920FB60F926A
:1002E00011242F933F938F939F93AF93BF9380914C
:1002F000110290911202A0911302B0911402309158
:10030000100223E0230F2D3758F50196A11DB11DD2
:10031000209310028093110290931202A093130273
:10032000B09314028091150290911602A0911702C9
:10033000B09118020196A11DB11D809315029093F2
:100340001602A0931702B0931802BF91AF919F912C
:100350008F913F912F910F900FBE0F901F90189586
:1003600026E8230F0296A11DB11DD2CF789484B543
:10037000826084BD84B5816084BD85B5826085BDA1
:1003800085B5816085BD80916E00816080936E002F
:100390001092810080918100826080938100809121
:1003A00081008160809381008091800081608093D2
:1003B00080008091B10084608093B1008091B00092
:1003C00081608093B0008091910082608093910061
:1003D0008091910081608093910080919000816074
:1003E000809390008091A10082608093A100809111
:1003F000A10081608093A1008091A0008160809322
:10040000A0008091210182608093210180912101CF
:10041000816080932101809120018160809320017F
:1004200080917A00846080937A0080917A00826063
:1004300080937A0080917A00816080937A00809125
:100440007A00806880937A001092C1008FEF81B9A2
:1004500012B84CED242E41E0342EF101249156E9DE
:10046000852E51E0952EF40184918823C1F090E00F
:10047000880F991FFC01EE5BFE4FA591B491FC0122
:10048000E85DFE4FC591D4919FB7F8943C91822FBF
:10049000809583238C938881282B28839FBF00E13C
:1004A00012E020E0A22E20E0B22EE2E2F2E08491FF
:1004B000F1012491F401949191112FC0C0E0D2E098
:1004C0008881229682B90E9447012B013C018EE768
:1004D000C82E84E0D82EE12CF12C0E94470164192B
:1004E000750986099709683E734081059105A8F34F
:1004F000F1E0CF1AD108E108F10828EE420E23E01E
:10050000521E611C711CC114D104E104F10429F7CD
:100510000C171D07A9F612B830C0882311F18150BD
:100520008231F8F4E82FF0E08827E656FD4F8F4F30
:100530000C940703CC02D002AC02C402C802B10280
:10054000D302D902DD02E302E702EB02F102F50277
:10055000B102F902FF020303809180008F7780933C
:100560008000E92FF0E0EE0FFF1FE45AFE4FA59147
:10057000B4918C91282309F4A1CFA114B10409F4FA
:1005800094CF0E94000091CF809180008F7DE7CFB3
:1005900080918000877FE3CF84B58F7784BDE1CFE2
:1005A00084B58F7DFBCF8091B0008F778093B000B2
:1005B000D8CF8091B0008F7DF9CF809190008F7758
:1005C00080939000CECF809190008F7DF9CF809165
:1005D0009000877FF5CF8091A0008F778093A00057
:1005E000C0CF8091A0008F7DF9CF8091A000877F40
:1005F000F5CF809120018F7780932001B2CF809139
:1006000020018F7DF9CF80912001877FF5CFEE0FFC
:10061000FF1F881F8BBF0790F691E02D1994F89467
:02062000FFCF0A
:1006220080000100400002002000040010000800C9
:00000001FF
